:20000000003C01209555010039FB021039FB021039FB021039FB021039FB021039FB0210F4
:1C00200039FB021039FB021039FB021039FB021039FB021039FB021011FB021002
:20003C002DE9F04FADF1440D0EF054FF18F034FF16F040FEA84C04F1AC0006461AF086F926
:20005C000DF125001AF06AFD4FF0030A4FF0804000218DF825A014F0F9FD0DF12501E061DB
:20007C004FF0004014F0F2FDE169206209B900B9FEE70025994884F8C4503146C4F8BC0041
:20009C00012017F0E5F8E062D4F81C80002801F01380B8F1000F0FD1206A04212A4676A319
:2000BC0018F092FE206A05212A4677A318F08CFE012017F041FD05E02946404675A30A4618
:2000DC0018F082FE206A20B9E06901212A4675A302E00521524679A318F076FE012017F0C6
:2000FC002BFD012017F028FD206A1AF09BFBE069294675A30A4618F067FE206A0521524670
:20011C0073A318F061FE022017F016FD206A1AF089FB0420294614F0BBFB022018F07EF904
:20013C000420012114F0B4FB0520294614F0B0FBB4496022CA730D278F710C264E72302332
:20015C008B770F20C870282270270D702A26CA7629238F74881C4E7502780B7602F0F00297
:20017C0002F00F0242F08002D2B28A7018F052FB002840F0B580A348A24A401D017841F06E
:20019C00030101F0FB01517118F044FB002871D19C489C4A0830017841F00F01117218F098
:2001BC0039FB002864D19748964A1D300178064601F0F60141F002015177114681F820509D
:2001DC0018F028FB002840F08B808E48012780F82070304618F01EFB002840F081808949AD
:2001FC00022081F82000304618F014FB002877D1844802460E3001781646334601F01B017E
:20021C0041F020019173597C01F01F0141F02001517418F0FFFA1136002861D1304618F04F
:20023C00F9FA00285CD12C21764A764811730B300570064618F0EEFA002851D13078714973
:20025C002B2340F020004F7340F09F000B73C0B220F040003070304618F0DCFA00283FD1E7
:20027C006848007817F0F4F800B92F46394638E0092136E0082134E053657269616C206421
:20029C006973706C617900C06E6F742070726573656E740048656C6C6F2053657269616C0A
:2002BC002100C0464C434420646973706C6179206E6F742070726573656E740048656C6CFB
:2002DC006F204C43442100C04E6F646520320A004E6F6465203200C0201B002040420F0059
:2002FC000721E06900290CBFA1A3A7A329460A4618F06AFD4FF4FD6128460A4615F08AFCD7
:20031C0028BB4FF4FD6101200A4615F083FCF0B940F2EA7102200A4615F07CFCB8B940F280
:20033C00EA7150460A4615F075FC80B940F2EA7104200A4615F06EFC48B940F2EA7105208E
:20035C000A4615F067FC002808BF96A300D09BA3E06929460A4618F037FD284618F08AFA55
:20037C0030B9012018F086FA002808BF9AA300D09FA3E06929460A4618F026FD28460121CE
:20039C0012F08EFD38B90120294612F089FD002808BF9DA300D0A1A3E06929460A4618F058
:2003BC0013FD042017F054F820BB164801460A4614300570C97D17463B4641F0F60101F0D4
:2003DC00F601D175997E41F0060101F03E01917618F020FA3E461A36173758B9384618F063
:2003FC0019FA38B9304618F015FA18B90548007817F02EF81BF0CAF815F06AFE071C00F040
:20041C00598601E0D04D002019F07DFC84468A48294630F80C6F002E40F048864FF6F876B4
:20043C00068047606171856078682063604619F04BFE04F16807294638461BF0A3F804F175
:20045C00CC0041F288312A467C4B676316F008F87B4F7C492A46152307F12A0000901020A8
:20047C0009F08EFB784910202A46022309F088FB4FF4806001213A4606F056FA40F202405D
:20049C0001217A1C06F050FA40F203400121BA1C06F04AFA40F206400121FA1C06F044FABD
:2004BC003A1D40F21140012106F03EFA7A1D40F21B40012106F038FABA1D40F20D40012110
:2004DC0006F032FAFA1D40F21240012106F02CFA07F1080240F20C40012106F025FA07F156
:2004FC0009024FF48360012106F01EFA07F10A0240F20740012106F017FA07F10B0240F2A2
:20051C001440012106F010FA07F10C0240F21640012106F009FA07F10D0240F215400121F0
:20053C0006F002FA494910204FF0FF3209F028FB474910204FF0FF3209F022FB1020DFF812
:20055C0014810090454A4448132341460190102009F016FB20201AF028FB0146E24A40484F
:20057C001D320A9281468160002900F0888079E04D4350323536323520696E697469616C64
:20059C00697A656400C046C00A2D2D496E697469616C697A6174696F6E204572726F722D4A
:2005BC002D00C046202D2046696C74657220436F6E66696720446F6E650D0A00202D204633
:2005DC00696C74657220436F6E666967204572726F720D0A00C046C0202D204D61736B2049
:2005FC00436F6E66696720446F6E650D0A00C046202D204D61736B20436F6E6669672045F2
:20061C0072726F720D0A00C0202D20525820436F6E66696720446F6E650D0A00202D205219
:20063C005820436F6E66696775726174696F6E204572726F720D0A00682E0020F035002092
:20065C00BC2E0020154401002D700100859201001D770100D58B0100B4D90100F4260020A6
:20067C0094290020F01D17F0EBFCC249102009F11402009011230191414609F081FA534651
:20069C0001208DF821304FF002088DF81F0004228DF82080B8498DF822200DF116032846C2
:2006BC000A6809791A600DF11F02197101210EF0F3FD012008AA01460EF0EEFD01210DF1D4
:2006DC00210240460EF0E8FD504601210DF122020EF0E2FD042005210DF116020EF0DCFD84
:2006FC0004F1380004F16002A449C9F80400102009F046FA607918F007FAA14902461020FB
:20071C0009F03EFA607918F0FFF99E490246102009F036FA9C491020FB2240F6480309F07F
:20073C002FFA9A49102009F02BFA701D13F05AFA607918F0E9F91037034604224046944983
:20075C0000901020019709F01BFA04F5B27704F5B2702946C0220F90384612F078FAF61DE5
:20077C00384608277F1E20F8186BFBD1E01C04F1830604F19403DFF870A10B9004F17407B3
:20079C000D9604F13C0B0E930AF1210A0AF105000C900120E070012017F0CEF952480A995E
:2007BC0080F82050087800F0F70008704E4908260420CE7716F04CFE0FF28C19002840F0DA
:2007DC00E9800A9818F03EF8002840F0E3804648007816F03DFE002840F0DC80E069294646
:2007FC002A4652A318F0F0FAE0780090E06929462A464B4618F0E8FA9AF8010040F0080030
:20081C008AF8010040F2E67017F0BAFD0090E06929462A464EA318F0D7FA9AF804000C9E31
:20083C000B9900F0B00040F001008AF804000978317040233B709AF80620FA719AF80010AC
:20085C0079709AF807303B723078C4F898709AF80120B8719AF80810BA709AF80230797252
:20087C000D9EFB709AF80320C4F89C609AF80A103A719AF80930F9729AF80B20BB7203203F
:20089C003A739AF804309AF80C207B7129467A730E23C4F894300822C4F8C02013F0F8FF52
:2008BC00E06A0E991AF0C9F820710121032013F0EFFF0D4880F820503D707D70BD70FD7028
:2008DC003D717D71BD71FD713D727D72BD72FD723D737D7335707570B570F5703571757148
:2008FC00B5710246F57101E0D04D00200A9835720178757241F0080101700821D17717F01E
:20091C00A1FF68B90A980078000907D30A9816F059FA0028F6D00220064602E02E4600E070
:20093C000726E069BEBB0FA336E0C0462D2D2D204D657373616765207472616E736D6974E0
:20095C00746564202D2D2D005461673A202564005472616E736D69747465642049443A2002
:20097C00256900C04D4553534147452053454E540A00C046D8D90100BADA01005D93010066
:20099C00D96C02102D6D02100D520210397F011051B70000E069D3A329462A4618F014FA42
:2009BC00284611F0CDFC0FF21838002865D0284609F054FD28B1E06929462A46CBA318F006
:2009DC0003FABBF80000BBF80430BBF80260608129462A46E381E069A681C7A318F0F4F95C
:2009FC00E069CCA629462A46334618F0EDF9A06A0090E069434629462A4618F0E5F9BBF8F6
:200A1C0000000090BBF802000190BBF804000290E06929462A46C4A318F0D6F9206A29463C
:200A3C002A46334618F0D0F9A06A0090206A02212A46434618F0C8F9BBF800000090206A0A
:200A5C0003212A46C3A318F0BFF9BBF802000090206A04212A46C4A318F0B6F9BBF8040087
:200A7C000090206A05212A464B4618F0ADF9012017F062F8206A19F0D5FE608AE189BFA6CA
:200A9C00884236D11AF01AF8608AA0820090E069334629462A4618F097F960890090A089D6
:200ABC000190208A0290E06929462A46B7A318F08BF9A08A0090206A0B212A46334618F0DE
:200ADC0083F960890090206A0D212A46BAA318F07BF9A0890090206A0E212A46BAA318F0BD
:200AFC0073F9208A0090206A0F212A46BAA318F06BF9012011F024FC002857D0012009F096
:200B1C00ADFC28B1E06929462A4678A318F05CF9BBF80000BBF80230208229462A46E06935
:200B3C00638275A318F050F9E0690FF2B42929462A464B4618F048F9A06A0090E069294619
:200B5C002A46434618F040F9BBF800000090BBF802000190E06929462A46DBA318F034F9DB
:200B7C00206A29462A464B4618F02EF9A06A0090206A02212A46434618F026F9BBF8000016
:200B9C000090206A03212A46DBA318F01DF9BBF802000090206A04212A46DBA318F014F9F8
:200BBC00012016F0C9FF206A19F03CFE608AE189884240D119F082FF608AA082218AE1828A
:200BDC000090E0692A463346294618F0FDF860890090A0890190208A0290E06929462A4634
:200BFC006AA318F0F1F8A08A0090206A0A212A46334618F0E9F8A08A0090206A0B212A46BA
:200C1C00334618F0E1F860890090206A0D212A4669A318F0D9F8A0890090206A0E212A46F6
:200C3C0069A318F0D1F8208A0090206A0F212A4669A318F0C9F8206B29464FF040424FF088
:200C5C00FF331AF09BFC0028109000F02682284603900DF11E0103AA05A817F0F9FB0028AA
:200C7C0040F08C81BDF81400102840F0838160799DF81E10884240F07D81039908884FF6E1
:200C9C00FF72824200F076810878913806D01F3800F06B81203800F064816BE148780E384B
:200CBC0000F0A880401E13D0401E00F055812E3840F0608188780C2840F05C810C200EE0C9
:200CDC0052656365697665642049443A20256900888842F23202824240F04C81104611F0AC
:200CFC00DBF947E14552524F520A00C05258204572726F7200C046C02D2D2D204D657373AF
:200D1C00616765207265636569766564202D2D2D00C046C052656365697665206275666630
:200D3C0065723A205258300044617461202D2046696E67657220313A2025642046696E6772
:200D5C00657220323A202564200D0A5461673A2025640A0044617461202D2046696E67655B
:200D7C007220313A2025640044617461202D2046696E67657220323A2025640054616720FE
:200D9C002564206D617463686564210044617461202D2046696E67657220313A2025642001
:200DBC0046696E67657220323A202564204B65793A2025630A00C04646696E6765722031A0
:200DDC003A20256400C046C046696E67657220323A20256400C046C04B65793A20256300ED
:200DFC0052656365697665206275666665723A2052583100888841F20542824240F0BA808D
:200E1C008868037890F90360002B40F0B3808178407800EB012018F0DFFE082880F2AA8063
:200E3C007F2E00F0A780DDF83CC0C10001EB00100CEB0002517C4B1C5374431861465B18DB
:200E5C001E731646727C4FF0050C091863460C31284692FBF3F303FB0CF3D21A63467274EB
:200E7C0011F9012B5B1E024410B2F9D1614690FBF1F040B2B074F37C002B7BD110F11F0F97
:200E9C00A94604DD337D022B18BF002B41D196F9120010F11E0F07DA10F1290F04DD337DFB
:200EBC00012B18BF002B22D110F1330F04DD10F1280F5FDA337DA3B910F1320F5ADA0421B9
:200EDC004FF0020926E0C04644617461202D204B65793A20256320546167203D2025640A62
:200EFC0000C004214FF001094FF0060814E04FF00108414610E0C04644617461202D204B70
:200F1C0065793A20256300C0546167203D20256400C002214FF00208707D804502D1B37D32
:200F3C00022B01DB804525D030880A464B4616F0F5FC0120F074707D804518BFB575B9F160
:200F5C00000F06D0B9F1010F14BF4FF002084FF0060886F815800DE00820294608F074F872
:200F7C0008E0084604F03AFA04E001F1080009791AF000FB039808B119F0D3FD1098C00FEE
:200F9C00C0F08B8083E0666B30461AF0EFFA864208BF2E1C02D0866817F06CF8301C76D047
:200FBC003078A18A401E09286AD8DFE800F024691B69605A5751053F7068B0F8028040467B
:200FDC0018F00AFE08285BDA0F9BC10001EB0011C918C87D012853D148491020424608F064
:200FFC00CFFD4DE070680168B1F1004F48D0406817F040F844E07068D4F81C8003783BB1E0
:20101C009B1E3DD1022009A916F0C4FC2EA304E0284609A916F0BEFC2EA39DF824002946C5
:20103C002A460090404617F0CFFE29E00491032004AA04210EF030F90220012113F028FC14
:20105C00284616F079FD0220294613F021FC17E07068B0F8010010F0DBFA15E017F0BCFFD5
:20107C000EE002200DF1230116F094FC08E02448009070682049C2882B46102008F080FD07
:20109C00706808B116F0F6FF304616F0F3FF606B1AF068FA00283FF476AFE078401CC0B25D
:2010BC003328E070BFF675ABFFF775BB491C0629FFF4AFA919F0D1FD2946404608A30A46C8
:2010DC0017F082FEFEE7C0464368617220333A20256400C04368617220313A20256400C09C
:2010FC00535049206F70656E20756E7375636365737366756C00C046358301000D2B0210CA
:20111C0040E2010038B586B004468DF805104FF6FF720120ADF80220090ADFF8545AADF8AE
:20113C00000002238DF806108DF8043069462A7820461AF013FA162803D1297820461AF029
:20115C0009FA07B030BD3EB504000D461ED0DFF8240A006822461AF0F9F9FF2815D0002097
:20117C000090002301AA294620460EF059FD60B99DF8040000F075F9C00606D59DF8040082
:20119C0000F06FF910F0040000D001203EBDFEB5164615244FF6FF7290420D4615D10020C2
:2011BC008DF80400DFF8C8799DF80400F97988421AD23246294600F03AF800B100249DF83E
:2011DC000400401C8DF80400EEE71AF0BBF950B100F0A2FB40B99DF804003246294600F080
:2011FC0026F8002400E014242046FEBD7CB50D46044606214C43164600F080F8A8B900F0BF
:20121C0078F890B99DF80700002E14BF054320EA0505E9B2814206D08DF807506A46082117
:20123C00A0B217F029FF012076BD002076BD2DE9FC410646344606235C438846154600F070
:20125C005DF8002852D100F054F800284ED1DFF82079387A800019F01FFA040002D100F0C4
:20127C002BFA43E0397AE03689062246090EB0B217F0DAFE002835D1204600F058F85FEAD5
:20129C0008000ED13A7A9206120E0021204618F0A5FB38BB3A7A92000021204619F06AF885
:2012BC0016E0214600F030F858B9280004D02146002000F029F810B900F0DDFB16E0A0F8D9
:2012DC0000808178A9420DD085700DB900210180204600F02CF8397A89062246090EB0B2B7
:2012FC0017F0CAFE00F0C7FB012000E00020BDE8F6810622FF21684618F070BB20346A46E7
:20131C000821A0B217F090BE70B5DFF864381D7A002200E0521CD4B2AC4206D231F8246049
:20133C008642F7D101EB840070BD002070BD10B50021DFF83C280AE030F82130DB4320F85D
:20135C00213000EB8103491C9C78E4439C70137A9942F1DB10BD2DE9FE4FDFF81448064622
:20137C00207A0F4691469B46800019F095F95FEA000803D100F0A0F90A206CE00C9D02972D
:20139C00B246062717FB0AF7029A07F12000082100F064F88DF80400304600F09FF8227AAE
:2013BC009200FF21404618F0E5FF9DF804000090E036217A89064246090EB0B217F05CFE22
:2013DC00009E02990643206A082200EBCA0018F0C7FFBDB10299887900232A4600F00100AA
:2013FC001AF0ACF800281CBF9DF93C00002803D0DFF884170120087007F123002A4600F0CD
:20141C002CF806435FEA090205D007F121001C2100F024F806435FEA0B0205D007F122002A
:20143C001C2100F01BF806430D9A62B107F1240000F013F8054625370EAA0421B8B217F041
:20145C001BFE05432E43207D08B100F09AFA404619F02AF9F0B2BDE8FE8F102180B217F0D4
:20147C000BBEE0B50623584320306A46082180B217F0DAFD10B99DF807000EBD00200EBDDA
:20149C00DFF8EC06007808210DF0C8BA38B50025DFF8DC4619E0206A062313FB05F300EB9F
:2014BC00C5022033082198B217F0BEFD58B1206A0622FF2100EBC50018F05CFF206A00EB5E
:2014DC00C5010022CA716D1CEDB2E1798D42E2DB207D10B1BDE8314053E231BDF8B5DFF8A4
:2014FC009016DFF89836C9791E680C460A4600E02A46D5B23DB1551ED2B2324412F8017C62
:20151C008742F5D12C46E4B220464D1E07E01718165C7F7817541A680244401C5670A84289
:20153C001A68F4DBAC4204DABDE8F840052017F0A3BDF1BD70B50024DFF8345600E0641C51
:20155C00E879E3B283420BD22B6AE6B20622FF2103EBC60018F042FA0028F0D0E0B270BDC3
:20157C00DFF81C26117819B1DFF810060168087870BD38B500200024DFF8F45503E0E0B21A
:20159C0000F008F8641CEA79E1B2914201D20100F5D032BD2DE9F84F83465D46062313FB6E
:2015BC0005F58EB005F1200701AA0821B8B217F03BFD002873D10622FF2101A818F00EFAD0
:2015DC0000286CD1DFF8A865307A800019F064F85FEA000903D100F06FF80A2061E01C22F1
:2015FC00FF2103A818F0C6FE327A9200FF21484618F0C0FE05F123040AAA1021A0B217F02B
:20161C0013FD60B91022FF210AA818F0E7F930B99DF80A0001A900F0010019F08BFF0822B9
:20163C0000F042F801AA0821B8B217F025FD8DF8000003AA05F1210000F03AF8074605F14F
:20165C00220003AA00F034F8804603AA1021A0B217F012FD044605F1240003AA102100F045
:20167C0028F88246253503AA0421A8B248EA070717F002FD2743317A9DF800504AEA07075E
:20169C00074389060BF1E0034A46090E98B217F0F3FC0743484619F007F83D4300E000252A
:2016BC0028460FB0BDE8F08FFF2101A818F062BE1C2180B217F0E0BC042017F0EBBA2DE9D4
:2016DC00F84187B0FF208DF80000DFF8A454E87918F0E2FF040003D1FFF7EEFF0A2030E0CC
:2016FC001022FF2103A818F045FEEA79FF21204618F040FE0622FFF7D7FF03AA1021022063
:20171C0017F0BAFC064603AA1021032017F0B4FC06436A460121042017F0AEFC0746E9794D
:20173C002246052017F0A8FC054601AA0621062017F0A2FC804600F09EF93E432E4348EAFC
:20175C00060008B0BDE8F081DFF824144088097817F0DEBBF0B5A9B006460D46144619F0A1
:20177C00F1FE08B91420ACE0A4220021684618F001FEADF800600DF12607DFF8F463F0787B
:20179C00B17B8DF80400F07B8DF8A000279861F30000B17B27908A074CBF0222002220F000
:2017BC00020010432790CA064CBF4FF48072002220F48070104327908A064CBF4FF4007271
:2017DC00002220F40070104327904A064CBF4FF48062002220F480601043279049074CBF42
:2017FC000421002120F0040008432790307C02280CBF01200020787419F098FE412807DBB9
:20181C00307C00B108209DF8991008438DF89900B07CB8B10121B974202206F18C010DF1D8
:20183C00390018F09DFD202206F1AC010DF1590018F096FD202206F1CC010DF1790018F054
:20185C008FFD00E0B874707B8DF8050090B1DFF83473102207F110010DF1060018F080FDDC
:20187C009DF89900082805D1102239460DF1160018F076FD307B8DF8260030B11022DFF898
:20189C0008130DF1270018F06BFD307948B1022D18BF032D03D1279840F002002790012106
:2018BC0000E000219DF899000143B0788DF8991000B1042001438DF899106846214619F0DE
:2018DC0031FE29B0F0BD2DE9FC41154615244FF6FF72904288460DD10027A54EF179F8B2EE
:2018FC00884216D22A464146FFF780FC00B100247F1CF3E719F026FE50B100F00DF840B94B
:20191C009DF804002A464146FFF770FC002400E014242046BDE8F68100210091002341796C
:20193C0001AA01F00101801D0EF07AB970B504460D4606204543082B88B0164603D13007DD
:20195C0058BF223500D521351C220021FFF7ADFE01AA1C21A8B217F067FB80B99DF81E003B
:20197C00C01F0A280BD29DF830000090F20801AB02F0010206F00101204619F0CFFD08B082
:20199C0070BD38B519F0C6FD0024794D0FE0286A0622FF2100EBC40018F020F828B9286A50
:2019BC0000EBC401002019F0B1FD641CE4B2E8798442ECDB31BD3EB50C460025014600954C
:2019DC00002301AA20460EF02BF938B99DF80400FFF747FDC00601D401203EBD00203EBDFF
:2019FC002DE9F041694F3C6806468846154603E02089B04224D02468002CF9D10C2018F08B
:201A1C004BFE040019D0268184F80A8000202060E07245B10821284618F008F9606018B9AE
:201A3C0000F029F80AE06060396811B93C6004E0014608680028FBD10C600CB9152018E0DB
:201A5C0019F060FD08B1002013E00120E0722A4641463046FFF77EFE04464548C0690028BE
:201A7C001CBF4368002B03D000220021304698472046BDE8F081204618F016BE38B5054638
:201A9C004248046803E02089A84204D02468002CF9D1012032BDE07A012807D100F05CF8B9
:201ABC0020B13348007804210CF0B8FFE17A491CE1722846C9B200F002F8002032BD38B58C
:201ADC00022904462A4D02D003290DD01EE042F6C921FFF717FB02001CBFE869002818D0BD
:201AFC004368B3B105210CE042F6A621FFF70AFB01001CBFE96900290BD04B684BB1024686
:201B1C000421204601B0BDE830401847BDE8324000E031BD10B51D4A1468002101E0214603
:201B3C0024686CB123898342F9D1206800290CBF10600860606808B118F0B6FDFFF79BFF85
:201B5C00002010BD024604201049096819B10B899342FAD1C87A70470C48006828B1006852
:201B7C0018B1C17A0029FAD17047002070470000C42B0020680F00206C510020FC500020D4
:201B9C006B510020404E0020704E0020005100202DE9F04385B00646002089460090904631
:201BBC001C46B179002304AA30460EF039F820B1FFF7C0FC8DF810001BE0D4B19DF810309A
:201BDC000620434323336A46102198B217F02CFA78B91022FF21684617F000FF48B9B0792E
:201BFC00314600F0010019F0A5FC10B1194901200870194F9DF81000F979884227D2012098
:201C1C000390009443460C980D990E9D019002914A469DF810003146FFF79DFB044655B155
:201C3C00397A9DF810008906E0302A46090E80B217F022FA0443200005D09DF81000FFF7DE
:201C5C00A9FCFFF723FC204605B0BDE8F0831520FAE700BF6C510020C42B00202DE9F84F5D
:201C7C00012016F0D7FA012816D1DFF898663078002119F043FC040004BF002017F00AF86A
:201C9C0000202072201D0EF075FE06F001F9050003D1812019F02EFC30E301206871DFF847
:201CBC006826DFF868064178491C4170A879A0724020317811700DF087FD2860616D4A7810
:201CDC00206DD10620D5816C0A681179032908D0816C0868007903280CBF0120002016F08F
:201CFC00D9FF206D816C0A6890F86C0002F1080701281CBF002016F0CDFF216D486F296842
:201D1C0000F5B060C8604AE0C16E0A681179032908D0C16E0868007903280CBF01200020D2
:201D3C0016F0B8FF206DC16E0A6890F8980002F1080701281CBF002016F0ACFF226DB5F869
:201D5C007401D2F8A0102A68DFF8C435DFF8C465D16097F82690B9F1030F1BD8DFE809F031
:201D7C0002050E1101F5B06101E001F53471D16005F59A711888088718880EE001F535512F
:201D9C0001E001F6B871D16005F59A7130880887308802E001F5B061D160A5F8740106229D
:201DBC002868DFF87465C168DFF8708501F59071C160B91C3878C0F3801085F82E0105F54C
:201DDC00947018F0CDFA042207F10E0105F1240018F0C6FA306895F8069000F10C03042224
:201DFC0007F10E0103EB491018F0BAFA3068AB7900EB4313032207F1120103F1100018F084
:201E1C00AFFA05F12C09787D89F80200022207F1160105F1300018F0A3FA022207F1180127
:201E3C0005F1320018F09CFA022207F11A0105F1340018F095FAB9F808006884022207F107
:201E5C001C0105F1360018F08BFA99F80200B9F80A10400089F802000901B9F80400A9F80F
:201E7C000A104000A9F8040089B2B9F806004000A9F8060003046A8C521CDB0B5A438A42B4
:201E9C0001D280B230B998F8000080210CF0C6FD3B2133E105F12E01284619F027FB0520F5
:201EBC00A8814FF01C0A284619F01CFB052207F11E0105F1610018F053FA97F82300400905
:201EDC0089F8000019F00AFB688205F59A72618D401AD08005F1610197F82300DFF840743A
:201EFC0000F01F0089F80F00284619F0F3FA616D4A78206DD1064CBF816CC16E41F621024E
:201F1C00086800210171A97938681AFB01F142520021AB791AFB03F303445980AA791AFB9D
:201F3C0002F210444160616DDFF8F8034A78D1060DD5DFF8F4138A7851060AD5DFF8EC2385
:201F5C00138841F20A418B4208BFDFF8E403C5F89C01D5F89C11284688473A68A97902F132
:201F7C000E031AFB01F15854AA7938681AFB02F202440020D0733968A87901F10E021AFB33
:201F9C0000F0115C89F80D10606D4178CA061DD595F8960108B916F07DFEA97938681AFBA5
:201FBC0001F1014495F89601421E0A74A87939681AFB00F00844002141743A68A97902F12C
:201FDC0012001AFB01F1002242522BE0A97938681AFB01F10144206D90F840200A74A879E9
:201FFC0039681AFB00F00844216D91F841204274206D3968AB79403001F112021AFB03F3D2
:20201C004188D15205F5CB710078012200F0030082400A70226D92F84000800814BF0120E3
:20203C00022008713968A879DFF808B301F1140231681AFB00F301EB4010D050A8793968CE
:20205C001AFB00F00844BC498161DBF814000078C107DBF8141009784CBF1F200F208A0783
:20207C00DBF81410097848BF40F020004A07DBF81410097848BF40F040000A073168AA7968
:20209C0001EB421348BF40F080001872A979306800EB41120B2050723168AA7901EB4210C3
:2020BC000421A64A81721078012806D13168A87901EB40120121D17207E0DBF824003168A0
:2020DC00AA79407801EB4213D8723168A87901EB40121F2111763068AA7900EB42110020A6
:2020FC004876A8790DF0B4FAAA79316852018850AA7931685201885820B90721284616F0EF
:20211C001BFFFBE08E48AA79016801EB021019F0DDF9A87931688A4B01EB4012196801EB35
:20213C0000105060A979306800EB41125168C9F83C10AA7952018158C9F84410042198F8EC
:20215C0000000CF06BFC616D4A783868D10648BF02210AD4A9791AFB01F101440A7C02F00B
:20217C000302022A14BF04210621B9F8042095F806C04FF4C8738A18698AAA615143B1FB6D
:20219C00F3F35B1C6B611AFB0CFCD5F800E06044DEF80CC040F6C41101FB02C2D21AA2F59C
:2021BC00A8628260AA7938681AFB02F283189A682B689A6000F10C03AA791AFB02F20C30B9
:2021DC009B5C03F0EF038354A8793A681AFB00F002F10C030C321B5C03F07F031354A879B4
:2021FC003A681AFB00F002F10C030C321B5C03F0F00343F002031354AB7938681AFB03F311
:20221C001844427B02F0F00242F001024273AA7938681AFB02F2024490682B68186130680D
:20223C00AB7999F802C000F11402686940005B0111FB0C0000F5F660D05095F896010428C4
:20225C000DD13068AA7900F114034FEA421C143053F80C20AB795B0102F56162C25030688B
:20227C00AA7900F114034FEA421C53F80C20C5F83421AA7900EB4210C37C03F0F00343F03F
:20229C000403C374DBF830003268AB79006802EB431CB9F8062042436423B2FBF3F359435D
:2022BC00A1F59661CCF81C103068A97900EB4110C27E02F0F00242F00402C276A979386839
:2022DC002A681AFB01FA00EB0A01516028460E2119F0F8F81B4907200870204615F088FA13
:2022FC0019488178880704D5AA790021204619F0E5F828681549164A41618261BDE8F14FB8
:20231C0003F014BAD50F0020D70F0020780E00208E0F0020900F00209C0E0020C70F0020F4
:20233C00980E002081010210C00C00209A0F00204DE5011058DB0100980C0020CC0F00203C
:20235C00A40E0020C80F0020200E002031D20000020480802DE9F84F054688B0A978DFF869
:20237C003C66002710294FF0060A3CD8DFE811F0110012031203120312033C00CF0012038F
:20239C001203750215010001C70212034B028D020A036878002826D119F08CF8044619F0D8
:2023BC0085F8054619F07EF88DF8000022461021022016F061FE2A461021032016F05CFEF1
:2023DC006A460121042016F057FE9DF80000012818BF032807D1012019F060F80246062107
:2023FC00062016F049FED5E268780028FBD195F80CB06C8900900023E97801AA01F00101D3
:20241C00281D0DF00DFC00284FF0010875D19DF80400FFF726F88146BBF1080F307A08BFF7
:20243C00B846800018F038F9050003D1042016F031FCAFE270789DF8041002280CBF012061
:20245C00002000905B464A462046FFF76FFA1422002102A817F08EFF9DF804001AFB00F087
:20247C00243002AA102180B216F0DEFDB0B91022FF2102A817F0B2FA80B99DF804001AFBFD
:20249C0000FA0AF1250306AA042198B216F0CCFD02AA09F00101204618F0FCFF317A9DF8C5
:2024BC0004008906E0302A46090E80B216F0BCFD98B92846FEF73BFFBA4609E005EB80009E
:2024DC00018819B18278204617F0DCF80AF1010A317A5FFA8AF08842F0D3B07A30B95FEAE5
:2024FC00897003D53178204616F012FD9DF80400FEF7F4FF284618F0D7F87078022805D11D
:20251C00B8F1000F02D0204612F0E2FA42E2A888FFF700FB18F0BAFF0028F7D1707D0128C5
:20253C0008D1FFF726F8706A77750422002117F021FF17E0B07D012803D1FFF7C0F8B77563
:20255C0010E000240AE0706AE5B2415D012904D1E0B2FFF71FF8716A4F55641CE0B2F179B9
:20257C008842F0D3502017F08DF9FEF78FFF11E218F0C8FF00280CD0F06900281CBF0468A4
:20259C00002C07D0286900906B7B2A7B6989E81CA047FEE168890121F1E1687800240028A3
:2025BC0040F01A81A879C10740F116810822002105A817F0DFFEA88818F0C4FF040076D062
:2025DC006F694FB30622002107F1110017F006FA68B306220021384617F000FAD0B9387C8C
:2025FC0000F001084FF0000909F1010987F811900020009000230022414607F111000DF0D8
:20261C000FFB00285FFA89F002D10028ECD101E000280CD1002068610622607900F0010021
:20263C008DF81A00A11D05A817F09AFE1FE06F69EFB1387C00F001008DF81A00062207F1FA
:20265C00110105A817F08CFE6079012805D10622A11D04F10C0017F083FE062207F1110195
:20267C00A01D17F07DFE387C40F002006071A879410720794CBF40F0020000F0FD0020718B
:20269C00A9790A0754BF00F0DF0040F020002071A9799DF81B00890801F0010108438DF802
:2026BC001B00A9790A074CBF0821002108E0FFF753FA0028ECD0307804210CF0AFF9E7E70D
:2026DC0008438DF81B000020009000239DF81A1004AA05A80DF0A4FA20B1FEF72BFF8DF8F6
:2026FC0010001AE06869C0B19DF810001AFB00FA0AF123036A46102198B216F095FC60B9C2
:20271C001022FF21684617F069F930B99DF81A0005A900F0010018F00DFF9DF81000F179DA
:20273C00884255D2E8680021039105A90269019002924FF6FF78686900902B69AA689DF8F1
:20275C001000FEF708FE0446AF88B06A48B906F1180100910223924A4146012018F092FED4
:20277C00B062B16A19B3FF200390022200230292019307A800900DF11203328B384605F0A1
:20279C00ADFE68B99DF812009DF8131000EB012290B228B1B06A418992B23846FEF7F7FC3B
:2027BC00328BB06A0023414618F068FEB062200005D09DF81000FEF7EDFEFEF767FE200008
:2027DC0007D1707A0028A88804D1FFF757F903E01524A888FFF79EF9F06900281CBF4368C8
:2027FC00002B0FD06A78A888012198476878002808D1A879C10705D5F369A88822465C6844
:20281C000321A047BEE0687806281BD1A88818F099FEB8B1F17C012904D013D3032907D06D
:20283C000CD30FE04179A8880022FFF7D9F809E00022002140F2094004F076F8A88805217C
:20285C0018F018FEF06900281CBF4368002B03D06A78A888022198479BE000970023E9788F
:20287C0001AA01F00101281D0DF0DAF90028F3D19DF804001AFB00FA0AF1250305F10C02CE
:20289C00042198B216F0F8FB83E0F06900281CBF4368002B03D0A888002200219847707812
:2028BC0010B9A88805216AE0A88818F04BFE040070D0A87AC10712D5009700236179002247
:2028DC0001F00101A01D0DF0ABF900281EBF60790028012803D0E868C0F3402028B1307CA1
:2028FC00022807D1A87A010704D4A888032118F0BDFD4FE06179A88805F1080227E02F7BB8
:20291C00AD88284618F01EFE040042D018F0FAFD00283ED100900023617901AA01F001015D
:20293C00A01D0DF07DF928BB9DF80400FEF799FD07F00C07042F11D0082F0BD00C2F0FD1F9
:20295C0000F0090109290BD0617900222846FFF747F81EE010F0090F02D1F5E7C107F3D560
:20297C0001220092A37C9DF8041002462846FEF7DDFF0EE070780028E6D10521284618F0E6
:20299C0075FD06E0FFF7E8F818B1307804210CF045F80127384609B0BDE8F08FC42B00208C
:2029BC0060D401002DE9FE4F04460020009000250CB916F06FF904F1500841F62300D8F89A
:2029DC00007038807D8002223A737A73694620460CF0B8F908B9072051E2009901B1B860B8
:2029FC00B8682061DFF89C04017884F8B810D8F80400407A14F0D6F825302076207EB873D2
:202A1C00FD73D8F80400017D022904BF002016F041F9D8F80400007D012802D100200021FC
:202A3C0004E083280CBF0620022020213874797404F12406DFF850A4DAF83C0041690868EC
:202A5C00717901EB41010844B0F801207A82D8F80400417848060AD5607DC10604D5E07F9B
:202A7C0040F04000E07702E040F04000607507F15C0904F1300089F80050B17E890001F050
:202A9C00040189F80010B866607DC10656D5D8F8042051788A060CD500F0FE006075D8F8D6
:202ABC000400417811F0030F03D1E07F00F0FE00E077607D18F0D6FCA075421C387CC0F321
:202ADC008001002392B200F0030018F0C7FCA0831E20A28B02F59B7393FBF0F01E2101FBF8
:202AFC001030C0B208B1C0F11E00821802F59B7262831E20A28B02F5967293B293FBF0F0E0
:202B1C0001FB1030A283C0B208B1C0F11E008018A08380B2E27D618B521E504340186083C8
:202B3C0007F13005608BB43080003866062089F80300E17F41F00801E17720E040F0010092
:202B5C006075D8F804104A78510744BF40F002006075607D18F086FCA0750023401C82B24D
:202B7C00387CC0F3800100F0030018F077FCA083A08B00F59670A0833D6689F80350A17DE2
:202B9C00207D61F3050007F18801207508700322607D48708A70B07E800000F0040040F00F
:202BBC0003008870F27ED20002F00802104388700020C870C7F89000B08BC0F30B00B083A2
:202BDC00D8F80410CA7D40EA0230B0830022617D01F0FE0120460BF08FFA019700271EE088
:202BFC001C2010FB07F004EB000B01991C220BF1640017F0B5FB0BF16C00052101717F1CF7
:202C1C00A28B92000260FFB2DAF83C104A691168737903EB43031944B1F801204281E07D15
:202C3C00401E8742DCDB019F20460FF011FCE07D012809D013D3032808D03EBF04F16400EA
:202C5C007860C8F818500AE07D6008E004F16400786004F18001C8F81810C8F8345041F69F
:202C7C00240038860021798607F13C05B868618B00EB8100B8630221822028706970002113
:202C9C0094F82100E97000F03F00A870D8F80400807D012818BF022803D100F07F00401E2F
:202CBC0004E083280CBF062002202021287169714FF0000BDAF83C0041690868727902EB58
:202CDC0042021044B0F80110E980C7F86CB0D8F80400417811F0030F20D018F0BBFBF86697
:202CFC00DAF818000078C107DAF8181009784CBF1F200F208A07DAF81810097848BF40F057
:202D1C0020004A07DAF81810097848BF40F040000A0748BF40F0800089F8140089F815B091
:202D3C00D8F80410594A897C01F0030189F81510B07E800000F00400014389F81510F07E56
:202D5C00C00000F00800014341F0100189F81510107838B199F8140000F0FE0041F04001FD
:202D7C0089F8140089F81510E07F18F07BFB84F82000204618F06AFBE07FC10636D5D8F8AF
:202D9C00040094F820204178521C88074EBFD21EF07F12182879C0F380010023D2B200F08F
:202DBC00030018F05BFB30801E22308800F59670C0F11E0190FBF2F21E2000FB02113171C6
:202DDC00D8F804104878810731884CBF00204FF49B70401830807080B86B31883279521890
:202DFC00A63200EB82007867022002E0C7F874B0002089F8170004F13000C7F8800007F198
:202E1C008400D8F804104A78510707D504F13802026099F8150040F0200007E01C490A68F3
:202E3C005168016099F8150000F0DF0089F81500A17F94F8200060F30501A17740F60B00D3
:202E5C002882A5F812B0DAF83800008880007865DAF83800008800B1072028770220687754
:202E7C0094F84510E983D8F804004178880744BF0121E983009808B10AF07AFF0020BDE8B3
:202E9C00FE8F00BF6251002058DB0100880E00206C0F00202DE9FC47D44C0F460546F80B56
:202EBC0080F006826078DFF85883B90F80F0AA81B90880F09D81F90A80F00281390B80F018
:202EDC00CC80380907D2F80FC0F0288227F0804710F052FE22E217F05EFE814616F092FC1F
:202EFC00002800F0B480082017F014FD002840F0AE80802017F00EFD002840F0A8806846C4
:202F1C000EF0E4F8012803D10098002800F09F8094F84102002840F09A8000250126E8B2C8
:202F3C0017F00AFA48B1837A3BB1867290F9090006FA00F0C0B215F0A1F96D1C032DEED383
:202F5C00032084F8200004F5CC7017F01CFE484618F078FAD34800252A460168056050F872
:202F7C00081CD14940F8085C04F15C0016F05AFB40460068006B8047A168401A010BA06A16
:202F9C00C1F1FF3282422CBF08444FF0FF30A06294F82C0020B12069A16AB1EBC02F25D921
:202FBC0016F040FC294600B13146081C1BD0BF4840F6090101804580417B06F00F0221F0AC
:202FDC000F010A434273017B05F00F0321F00F0143EA010202732946416017F045FB41885A
:202FFC0011F4406FFBD084F82C60A56213F0CEFACE4829460560022016F06CF9022015F0BE
:20301C0079FB11200CF0E8F8207818B96068483017F005FEC648007810B90E200CF0DCF813
:20303C0094F82D0020B184F82D50052015F062FBC048606284F82050B4F9B000B4F9B210E8
:20305C00884214BF022007200FF044FA02E0484618F0F8F927F008073AE720B1042015F087
:20307C0049FB00206070656814F0D8FE38B12846ED696FF4807100224FF00073A847E0684D
:20309C0058B140460068006B8047E2686168801AC860000BC8600026E660A74904F15C0036
:2030BC00002216F0BFFA0221D4F89C0084F8201018B104F1DC0017F0C4FD27F4006707E70A
:2030DC0017F069FD064616F09DFBD4F894100028894600F08480002900F0818097490425FF
:2030FC0004F15C00002284F8205016F09BFA304618F0A8F904F5CC7017F045FD404600682F
:20311C00006B8047E0604FF0010884F80180284615F008FBD9F810006060D9F81000416A39
:20313C00C90803D3036A294600229847404611F09FFC606880F8158060680CF0A3FB6568C9
:20315C00D5F808A040F60A02D01F564600F1010C00E01E46736833B119888A4203D0884206
:20317C0018BF8C45F5D100217160727B08F00F0322F00F0213437373D9F80C201288904214
:20319C0024D06046904221D02B8E03B3696305F13002518095F83C0001F00F0320F00F0097
:2031BC00034385F83C3095F83D0008F00F0320F00F00034385F83D307260707B01F00F05DF
:2031DC0020F00F0045EA0001717300E0E160504617F04AFA5146404616F07CF802E03046AF
:2031FC0018F030F927F4806798E0C0464821002007F00EFED4F89C0008B927F002078DE0C0
:20321C008C0100104E4A116841F08001116020B1042015F06FFA0020607017F0BCFC8246E7
:20323C00D8F85400016804208847D0B1287DC0B1A068B0B18146D8F800002E69006B804792
:20325C00A0EB09002861000B2861B04202D280194008286140F6C41181422CBFB0F5967FFE
:20327C002961504618F0EEF814F0D8FD80B1EE6928466FF4807100224FF00073B047D4F86A
:20329C009400002808BF47F0020701D010F074FC2846AD6900214FF080630A46A84727F0F1
:2032BC0000573BE014100440494F01003C50002017F071FCD4F8AC6066B306F1280106C97F
:2032DC000A234FF0E0450B40154008BF002B21D106F1280191E8000306F1280595E806007A
:2032FC0006F1280322EA090221EA080183E8060018F0A8F8B16879B1B9F1000F08BFB8F1E0
:20331C00000F09D03069B6F93010B5684B464246A84701E018F096F827F4804727B104F1D6
:20333C00DC00394617F08DFCBDE8FC87000004609ED90100E1D9000031CE0000019801002F
:20335C00CC2108402DE9F84FDFF85854A9780024FF2904BF002015F09DFCA87816F09CFF8D
:20337C00054605F1680605F5C9773168086805F1900808B1EC8311E0B07B002804BFB07E54
:20339C0000280BD198F80010002904BF3878002804D1287F012804BF688CE8832989E88BBD
:2033BC004118491C6981284618F048F801281EBFDFF8F4030178012903D12989EC83491CC2
:2033DC0069814FF6FF79B07E01280DD1B28B6989288918F02FF838B1298968894A1C93B2AF
:2033FC0098422FD0B08B23E098F8000001280FD1B8F802206989288918F01CF840B12989CD
:20341C0068894A1C93B298421CD0B8F802000FE03878012816D17A886989288918F00AF81E
:20343C0080B1298968894A1C93B298420AD0788892B2904206D04844688180B217F0F6FFAE
:20345C004844E883387801280FD128897988401C80B2884209DB7C793C71022038702346DD
:20347C00A979224600200BF00DFA05F59A71087920B128890021401CE9836881B07E012853
:20349C0013D12989B08B4B1C9BB298420DD1688117F0CCFF804605F12E008188308C01FB6D
:2034BC00080828460FF09AFA03E005F12E01B1F80480EA8BDFF8F492501C00FB08F040F643
:2034DC00C41808FB00F100912B68D3F80CE07144D960B74B196809788909032940F01681AE
:2034FC0099F80F30B349DB0740F10081B5F812C000230CFB00FC4FF4C87EBCFBFEFC0CF174
:20351C00010C0B80A861C5F814C085F820204FF01C0BDFF8A4A2AB79DAF8000000F108022C
:20353C001BFB03F3D1582A68116100F10801AB79D26868691BFB03F3121ACA50DAF80000E9
:20355C00AB7900F108021BFB03F3D1582A68916000F10C02A9791BFB01F10C30535C03F071
:20357C00F00343F002034354DAF80010AB798A1C1BFB03F30021D152387908B915F08AFB75
:20359C00DAF80000AA7900F1100138791BFB02F240088854A879DAF800101BFB00F00844E4
:2035BC00002141743879042814D1A879DAF800101BFB00F001F110021031135C3A7A43EAB9
:2035DC0082030B54AA79DAF800001BFB02F2024420205074DAF80010A87901F112021BFB83
:2035FC0000F0002111527549A8790A6802F114034FEA401C143253F80C00AB79D5F814C0E9
:20361C005B0100EB4C00D050B07E02280DD10A68AE7902F11403760114329859AB7995F8A3
:20363C002E605B0118FB0600D05005F12E0299F80F00C30773D5DAF80000AE7900F108047D
:20365C001BFB06F60830A359AC791BFB04F4A3F5A8630351DAF80000AE7900F108041BFBD2
:20367C0006F6A3592C68A36000981B1A23610868AE7900F1140476011430A359AC7964016D
:20369C0003F5F6630351387904280BD10868AE7900F1140476011430A359AC79640103F5D7
:2036BC00616303510868AC7900F1140364011859C5F83401424B186B0C68AE799288006844
:2036DC0004EB461742436424B2FBF4F408FB04F0A0F59660F8613B480278012A48D1086854
:2036FC00A97900EB41120120D07248E00B885B1C1FFA83FCBCF1010F11BFB5F812C005F51B
:20371C009A7EBEF806C00CF2DC5CF2E6698A41434FF4C873B1FBF3FC0CF1010CF2E6042C49
:20373C000BD10868AE7900F1140476011430A359AC79640103F56163035138790B68AE7955
:20375C0004280CBF4FF4AA504FF4E66003F114047601A359181A938808FB03F3A3F51673AA
:20377C009842A7D30821284615F0E6FB012016E0586A0968AA79407801EB4213D872A8798B
:20379C00DAF800102A681BFB00FB01EB0B00506007210D48017028460FF054FF0020BDE86E
:2037BC00F28F00BF780E0020D10F0020980C00203C0F002054510020980E00209C0E002083
:2037DC0058DB0100CC0F0020C80F0020F0B505AFADF1640D0A930992089107903868159092
:2037FC000020386007983CC869463CC10DC881E80D00079880690078000A21D307988069D5
:20381C0017901798C0681390179880681490179800798DF85800179840798DF859009DF850
:20383C0058002E2807DC9DF859002E2803DB2E208DF85A00FEE1179800798DF85A00F9E1CC
:20385C0007988069D0F8C400139007988069001D149020208DF858007E208DF859002E2065
:20387C008DF85A00E6E1BDF90C000A998842C0F2EA8108999DF8580091F90010884213DC59
:20389C0008999DF8590091F9001088420CDB08989DF85810149A90F90000401A139932F82E
:2038BC001000091812910AE09DF858109DF85A00149A401A139932F81000091812910898F0
:2038DC00401C089012990A984A78BDF908108018814205DD12990A98497840180A90A9E134
:2038FC0002200B9000200C900020119000200D9095E10D9A3868BDF90E1080188142C0F217
:20391C0094810698007830F0800051D100200F901FE012980B9A1199105C884013F038FB7D
:20393C000E900E98082803DD1198C0F108000E900E990F9840180F9011980E994018119089
:20395C00119808280AD1002011900B98401C0B90FFE712980B9900788842DADC0020109050
:20397C0020E012980B9A1199105C8840C04313F00FFB0E900E98082803DD1198C0F1080038
:20399C000E900E9910984018109011980E9940181190119808283ED1002011900B98401C35
:2039BC000B90FFE712980B9900788842D9DC32E012980B99085C78B112980B99085CC0F3D3
:2039DC0003100F9012980B99085C00F00F0010900B98401C0B901EE00B981299401C085C22
:2039FC00000A0DD300200F9012990B98401C085C00F07F00C00010900B98801C0B900AE061
:203A1C000B981299401C085CC0000F90002010900B98801C0B900F98002800F081800D9A1C
:203A3C003868BDF90E108018814279DB0F9801283BDD12990C984978401C814235DD129973
:203A5C000F9A0C9849788018814204DA12980C994078401A00E00F980E900D9A3868BDF980
:203A7C000A108018814217DC3879A8B10798406904900C990A9A159B3D680E9E0C9CDDF815
:203A9C0028C00D9852185B1992191B180CEB0401521E68460DF0AEF80E990F98401A0F90BD
:203ABC000C980E9940180C902CE00C9A0A98BDF90810801881421FDC0C9A0A98BDF90C1019
:203ADC008018814218DB0D9A3868BDF90A108018814211DC387978B10798079B0C9D0A99B6
:203AFC003E68159A0D9C40689B8A4919921989B2121992B214F0F2FF0F98401E0F900C98EB
:203B1C00401C0C9012980C994078884204D10D98401C0D9000200C900F9800287FF47FAF21
:203B3C00109800287BD00D9A3868BDF90E108018814274DB1098012839DD12990C98497892
:203B5C00401C814233DD1299109A0C9849788018814204DA12980C994078401A00E010983E
:203B7C000E900D9A3868BDF90A108018814215DC0798006904900C990A9A159B3D680E9E42
:203B9C000C9CDDF828C00D9852185B1992191B180CEB0401521E68460DF02CF80E991098B9
:203BBC00401A10900C980E9940180C902AE00C9A0A98BDF90810801881421DDC0C9A0A98F4
:203BDC00BDF90C108018814216DB0D9A3868BDF90A10801881420FDC0798079B0C9D0A99C1
:203BFC003E68159A0D9C40681B8A4919921989B2121992B214F072FF1098401E10900C98E8
:203C1C00401C0C9012980C994078884204D10D98401C0D9000200C901098002883D11298C2
:203C3C000B99007888423FF764AE12990A98497840180A90089890F9000020B10998411E40
:203C5C00099100B10FE619B0F0BD70472DE9FE4F0546DFF82404DFF824640278002A4CD00F
:203C7C00052A73D0062A00F08080072A18BF082A00F0F7800A2A00F0D381112A02D0132A33
:203C9C0070D0F1E1DFF8F8331878002117F036FC04001EBF606D407810F00C0F2DD0216DFE
:203CBC00C0064CBF886CC86E0622016801F10805A91C684616F054FB287800F00F010529C7
:203CDC001BD145096946C0F3801017F0ABFB002813D03168684617F0A1FB0746316804F11F
:203CFC00380017F09BFB87420DD0606D4178C80604D440F2014017F08DFBBBE1607B40F058
:203D1C0002006073B6E133681E2010FB07F6981906226946C01D16F023FB606D4178C8065D
:203D3C00F0D5A17B0129EDD1DFF858038178480605D5E90703D4206D41F20A4102E0206D0A
:203D5C0041F2044141804183418693E116F057FF0028FAD10FF03EFC012802D0012017F064
:203D7C0055FB87E10FF063FE84E1DFF81C53286817F048FB0400F7D020790328F4D1207A9C
:203D9C0000F00F01072937D1C04800684169497A4A1E11425ED0617A04F10A035A5C02F084
:203DBC003F02252A56DBA17A8A09012A52D111F03F0F4FD0007C16F06FFAE17ACA074CBF9A
:203DDC0004F1110204F10B028B0748BF921D0B0748BF921CC90648BFD21C162112785209CE
:203DFC004A43AB498B180A31EB608A5A428699898186DA89C2862DE000F00F00082829D147
:203E1C00A17A880926D129B3A0480168087C16F043FAE17A074688071CD5062201F00101AC
:203E3C005143601800F10C01684616F099FA207AC009FF280ED0694617F0F4FA50B1306870
:203E5C0000F10D01684617F0D9FA18B90521384615F072F82079032802D0002014F01AFF08
:203E7C00FEE0DFF830B29BF802000024FF281BD016F012FA804608F16C09D9F8040017F0A2
:203E9C00C1FA2A460179032901D011000CD08368197801F003008D06009003D5012400984F
:203EBC0018B9BAE01000FAD0E4E05D7803F1020A34B31AF8010B784B01902C2098F806C00D
:203EDC001F6810FB0CFC67444FF0010E87F805E0002A1F6898F806E007F11A0C019F10FBDF
:203EFC000EFE07F01F070CF80E7098F806701B6810FB07F01844019BC3F38113C3761AD10A
:203F1C000098032808F217171AD0ADB199F8000068B108F1F4000278012A0DD1564B1A7805
:203F3C00072A04D0082A04BFC078012804D13D217970012038709DE0584A1378012BFAD085
:203F5C0098F8940070B32D1FEDB253462A4640460EF006FC00281EBF51490878002807D165
:203F7C003D21797001203870306817F043FA81E04C4801688847064698F80610DBF8042023
:203F9C004FF4D07041435018002280F8412108F59E700168807949080EF046FF42490A689C
:203FBC00304690470098032819D04048416909788A0708D541690878C1074CBFE81C28465C
:203FDC001AF8000000E0812089F808002A460098C3B29BF80200514606F0F8FA1DE09AF889
:203FFC0000001CB11B2804BF022D01251C2803D22F490B5C9D4205D0B8700721404617F0F4
:20401C0061FA0AE01C48017808295146404602D116F0BBFD01E000F079FAD9F8040020E06A
:20403C00244C207830B3244D286817F0EBF908B3017903291ED1017A8A0611D5807AE178F9
:20405C00C0F38112914202BF217900F01F00814206D1A078002801BF607800280121A170F4
:20407C00286817F0C3F905E0002014F013FE862017F040FABDE8F78FC80F0020680F002017
:20409C00D50F0020C00C0020BC0A0020540F0020E0070020780E0020D8500020D20F0020B5
:2040BC0067510020242E0020282E002058DB0100F0DB010064500020AC0C00202DE9F04F23
:2040DC000F46380589B018D5DFF8EC532888FF280ED0C0B216F0E0F8040009D0A0791621C4
:2040FC0017F080F9204616F0CDF8204617F076F9FF20288087F40060DAE1F80508D50220BE
:20411C0016F079FD08B10DF0B6FE87F48070CFE1B80604D512F09BFC87F02000C8E1F80713
:20413C000CD516F089FA30B100218160DFF88C03006800B1804787F00100B9E1380704D5A6
:20415C0012F005FF87F00800B2E1F8060FD500210022002306910592049103930291019264
:20417C000091022017F036F987F01000A0E1B8070FD5002100230691059104910393029160
:20419C000191009101223C2017F024F987F002008EE179074FF01E08C94EDFF828A340F186
:2041BC00CD80C9480022002108920791007817F0A5F90446C5488178FF2904BF002014F094
:2041DC0069FDA07A16F068F805469AF8000095F82E91002805F5947B69D0606D807A022859
:2041FC0018BF032807D130680D3017F0EFF810B93068C11D07915946484617F013F9A0B39C
:20421C00606D807C3368002818BF012804D11946584617F003F904E05A464946184617F0A9
:20423C0095F9FF2843D018FB00F83068404406225946C01D16F094F8306810F80810404401
:20425C0000F1010BC01D41F0020908900622616DC87A00F0010085F82E01606D00F10C01F4
:20427C0005F5947016F07CF821E05946484617F0A9F8E0B130685A46494617F067F9FF28EE
:20429C0015D018FB00F8306840440D3017F09EF858B9306840440D3017F098F8002801BF33
:2042BC0030684044417F012901D149F0020905F12C004B4601780691428912090592012263
:2042DC00698C0491C0880899029140080390CDF800B0079801900020A97917F07BF8D5F8B3
:2042FC009C017B498842A8790CBF0021012117F065F87848AB7902682C214B431344012241
:20431C001A73AB7904684B4323445A73AB7904684B4323449A73AB7904684B432344DA733E
:20433C00AB79006811FB03F10144002008740720A9790DF088FC87F00400B9E038060FD5F4
:20435C0000210023069105910491039302910191009101223B2017F03DF887F08000A7E0B7
:20437C00F8045DD55C4930680C680D3017F02EF8002844D13068C11D0D3017F01BF83EE0B0
:20439C00606D4178480704F13E0526D5287802281EBF03286878012830D16978306804F1AF
:2043BC00380217F0D3F88146B9F1FF0F15D0306818FB09F948440D3017F008F868B930683B
:2043DC004844C11D0D3016F0F5FF30684844C11D062204F1380015F0C3FF2878022818BF61
:2043FC0003280BD130680D3016F0F0FF30B93068C11D062204F1300015F0B2FF2468002CB6
:20441C00BED13648DAF8042000784FF4805112F095FC10B18E2016F0C9FF87F4805047E0AF
:20443C00B80505D516F016FA2D4901200860FEE7780504D515F09BFC87F4806038E07804EE
:20445C0005D5812016F0B2FF87F4804030E0B9042DD5244C206810B1002014F01BFC4FF0D1
:20447C00FF3020600020204C0EF0A2FC216851F8202F684690471D494A6B086BC96A246856
:20449C001B4B019200900293ADF810106B46194A19491A4803921A4A07922568194AA847D4
:2044BC001949086004F0E4FC87F4005000E0002009B0BDE8F08F00BF62340020480F0020AE
:2044DC00680F0020880E0020D70F0020780E00204DE50110D85000204C0F0020C70F0020CB
:2044FC007C052043380F0020200F0020502F002035A6010045A60100743400202808002087
:20451C001EFB0080EC0A00201C0F00202DE9F043044685B0084611F801CBDFF8A483DFF8C5
:20453C00A4332C22BCF1030F4FF0000904F5A47704F1660504F1F40600F0C380BCF1070FDA
:20455C0000F08081BCF10F0F0CD0BCF1110F00F02481BCF11A0F00F03681BCF11B0F00F001
:20457C0061818EE1707A820703D40F2184F8191159E008784A7800EB02233B808878CA7826
:20459C0000EB02237B8008794A7900EB0223BB808879CA7900EB0223FB80087A38724A7AA6
:2045BC00887A02EB00237B81C87A0A7B00EB0223BB81487B8A7B00EB0223FB81C87B0A7CA1
:2045DC0000EB02233B82487C8A7C00EB02237B82C87C0A7D00EB0223BB82487D897D00EB4D
:2045FC000122B948FA8201788A0658BF4FF01A0913D504F5AA70049079890391387A029014
:20461C0021890191F8880090BB887A883988204616F0C8FEC8B14FF01E09707A410706D40F
:20463C000F2084F81901204616F0B8FEF0E04A460F21204616F0AEFEF8880090BB887A887A
:20465C00A179484611F042F9E9E004F1860079888180BA88C2800222F98801810270A0F85F
:20467C000290A18EC91DE983628E8188B1EB520F02BFC188A28E914202BF0089E18EB0EBB4
:20469C00111F1CD0287C012804BF687C0F2809D0687D00281CBF687C1A2803D00F21A9762E
:2046BC00FE2176E0FC21204616F00CFFF8880090BB887A883988A07916F068FEAFE010217A
:2046DC0067E0707AC20709D431781A200129707002D1FF220D213BE00D215AE085F8009048
:2046FC0085F8069001233371082204F1B00016F049FE0146022204F1B80016F043FE04F153
:20471C00A80801460822404616F03CFE07460821404616F033FE04F19C080422394640469F
:20473C0016F030FE0421404616F028FE04F1A00016F020FE04F1980016F018FE63480188BC
:20475C0041F0800101803078012805D1FF220421204616F007FE62E06E7C0F2E18BF142E2A
:20477C0004D00E2E1CBF0C2E1A2E11D12F7C204616F0F4FD0421204616F0A4FE012F05D18D
:20479C001A2EAE7614BFFD21FB2102E0314600E00421204616F096FE41E00E783E761A2E83
:2047BC00497879766DD11868A679411C564301F806901968A37912FB03F20A4482F80490D0
:2047DC00A179787E56E0A77918680E785743074406F01F0117F8210FB60938B17878F0404F
:2047FC00C00703D594F89601042805D120221A21204616F0CFFD12E0F970A179186812FB22
:20481C0001F28118204681F82360002116F0F9F928B998F800004FF480410AF0FFF84FF0D0
:20483C00010932E0A179186851430144C88808B981F80190A179186812FB01F2811881F806
:20485C000490ECE709780F2917D01A2919D1A1791868514301441A2081F80190A1791B68B4
:20487C0012FB01F2991881F80490F17A01F0FB01F172A1790DF044FBD1E7717A01F0FD01BB
:20489C0071720146204616F065FD687C1A2812D1A87C17281CBF1028FC280CD12E7C204674
:2048BC0016F05CFD012E03BF1A20A876FB211A21204616F007FE484605B0BDE8F08300BF52
:2048DC00C70F0020D8500020200E00209C0F00202DE9F84F0422FF21684615F04BFDDFF8F0
:2048FC008C63B0780024FF2800F0BE8115F0D4FC0546B07815F078FE064605F21710017865
:20491C00012908BF417800F0008105F1740005F5927A817B022904BF05F174018C7395F80F
:20493C009201022805F1740008BF85F89241017F022904BF05F174010C77BAF80E1019B127
:20495C009AF80C000AF06AF86889C94F288105F58D7BBA7AF879397B80184118F87A0818B1
:20497C00797B00EB0109BBF80400BBF80010401CABF804004944BBF80200ABF80010101898
:20499C00ABF80200DAF80000F0B1BA4995F806E00B681C2103F10E0C11FB0EFE0E331CF842
:2049BC000E1030F811C0CC4420F811C01C2195F806C011FB0CFC13F80C3000EB4300B0F80A
:2049DC004A105218A0F84A2013F064FEF879002804BFF87A002805D1387B002804BF787B33
:2049FC00002840D0F481A046F07EC00910D0307F00F00701022907DA00F0F802401C00F008
:204A1C0007001043307703E0A879002111F0BAFE2989E8892C744118287FA981012804BFC2
:204A3C00688CE883A979012207200DF00CF9787805F1740658B101212977B078002804BF4F
:204A5C00B07B002803D1307F08B9688CE8839AF81400002862D0022804BFF87A002858D194
:204A7C008AF814405AE0A979002207200DF0EBF8EC83317F11F0070F02D1F07EC00903D0AC
:204A9C00A879002111F07EFEB87A38B1287F01284FF0010827D1688CE88324E0BBF80600F4
:204ABC00401CABF806004FF00208287CD8B172490868AB7995F82E6000F1140268694FEAE4
:204ADC00400C40F6C4105B0110FB06CC0CF5F660D0500968A87901EB4010C17C01F0F001C7
:204AFC0041F00401C174A8892989814206D088429DD2081A41F2AB02904298DA287C08B1D7
:204B1C00052901D0082100E03E21284614F014FAAAE0787A10B102218AF81410F87BC10751
:204B3C000DD538692968C86000F59070C86052480168A87901F114024001145014E04E48A5
:204B5C00AB79026802F114015B01C858CAF810004848AB7901681C2001F108024343D05852
:204B7C002968C860EC832C77444A50690078810702D5B87B802800D181203070404991F831
:204B9C00200018B12946012016F031F828460AF08FFF02281BD1F079022805DB6A463949A0
:204BBC0028460FF0D5FE0446284616F0CFFB01285AD020000DD022466946284610F07CFBC5
:204BDC0038B928460AF074FF012802D14CE001284AD00121284616F0B5FBFEF7B3FB012870
:204BFC0042D0284610F0E3FA00F0A0FD264F3868002839D0B888AA7990421CBF4FF6FD71A6
:204C1C00884231D12148007B15F056FD04002BD084F80080A8791E4960800A68A879115C0D
:204C3C00217105F5C9721079607196F90010A171A4F80890BBF80200608115F0FDFC0500B9
:204C5C0005D1FF204FF0FF312073216109E02878207316F073FB0146A86816F06BFB8008E4
:204C7C002061204639688847BDE8F18F780E0020980C0020980E00209C0E002058DB01006E
:204C9C00FC4D002004310020800E002084340020F05000202DE9F84FDFF894030278112AD4
:204CBC0003D0122A00F0BE81C0E1DFF888331878002116F023FC05000AD1002013F0EAFFA5
:204CDC00002013F0E7FFBDE8F24FFF2016F012BC05F14C0A9AF8000008B90121E972401C5E
:204CFC00DAF808108AF800004A78D106DCD4E97DDAF80470C2B28A424FF00008D4D305F113
:204D1C00280407F1900907F17306C34640F08C80A87F7075E97FB175DAF80820527893070C
:204D3C0010D5EA7FD30604D5C01E707501F0EF01B175C7F874B086F800800022B17D01F06B
:204D5C00FE016AE1910608D4E08B00B1E07E3076E08B00B1206AC9F80000DAF80800417860
:204D7C00CA070DD5E08B00281CBF206A002807D0C9F80000A17EE08B814238BF0846307674
:204D9C00E87FC1060CD5B86B217800EB8100B863B86BA98CA63100EB81007867022002E027
:204DBC00C7F874B000203070DAF80800417811F0030F22D1007815F020FF5FEA00081CD0C2
:204DDC0098F8B000032809D1E87F810615D440F02000E877B07D40F020000DE068B9E87FFA
:204DFC0081060AD500F0DF00E877707DA0F112017175B07D00F0DF00B075E97F002201F0F0
:204E1C00FC01284609F078F9B8F1000F36D0E87F810633D598F8B00002282FD1414628468E
:204E3C00BDE8F44F15F0F1BEE87F81060AD500F0DF00E877707DA0F112017175B07D00F02B
:204E5C00DF00B075DAF808004178C80717D5B07D717D00F0F700891E01F03F0182075CBF66
:204E7C00891D40F00200420644BF491E00F0BF00B0757175C9F800B086F81880D6E09AF803
:204E9C000020E87D121AD2B28907009240F18280012A07F140083FD1B86BA98C00EB81002D
:204EBC00B863A87F00F03F00A8777075E97FB175DAF8082053785A0703D5801F707501F060
:204EDC00FD01B1750023707DE17E00F03F00421898F80000521CC0F3800192B200F0030031
:204EFC0016F0BCFA00F59B70A8841E21A88C90FBF1F18AB2B17D01F0FE01284609F0FCF819
:204F1C0086F800B0E08B00B1E07E3076E08B00B1206AC9F8000089E0B86BA98C022A00EBE8
:204F3C008100B86326D1E87FC10706D5707D811F7175B07D00F0FE00B0750023707DE17E96
:204F5C0000F03F00421898F80000521CC0F3800192B200F0030016F081FA00F59B70A88496
:204F7C000022B17D01F0FE01284609F0C5F8607FA8F81A00617F0098491C081AC0B201287E
:204F9C001CDDB96BAA8CA63201EB820179670221317014E0B86BA98C00EB8100B863617F04
:204FBC000098081AE97FCA06C0B207D5B96BAA8CA63201EB8201796702213170B0B395F860
:204FDC001F80A97FD9F80020E37E1A44C9F8002028F00108DAF808205278530748BF28F0FF
:204FFC000208920748BF28F00808012807D1207F3076C7F874B028F0100886F800B001F04B
:20501C00C004404616F02EFA00F03F002043707586F81680002208F0FC012846BDE8F84F00
:20503C0009F06AB8BDE8F14F10F029BBBDE8F18FC80F0020D50F00202DE9F041FF28064696
:20505C002AD115F03DFC10F01F0F22D0042012F091FE08B1042016E0012012F08BFE08B1EE
:20507C00012010E0022012F085FE08B102200AE0102012F07FFE08B1102004E0082012F0F1
:20509C0079FE20B10820BDE8F04113F0DDB813F001FE0020BDE8F08113F0D6F88046012E18
:2050BC00D8F8044046F2A81740F6C4100BD0022E5DD0042E00F0AB80082E00F0F380102E63
:2050DC0000F04281E5E7DFF8000301688F88102012F050FEE8B1102013F0B6F805466E68C0
:2050FC0046B9022012F046FE20B1022013F0ACF805466E68012012F03DFE40B1B068A0EB80
:20511C008701A06814F00EFB08B94046C2E72846C0E7022012F02EFE90B1022013F094F88F
:20513C0006460120756812F025FE38B1A868A0EB8701A06814F0F6FA0028E6D03046A9E7F8
:20515C00042012F017FE08B10420E7E7082012F011FE30B1082013F077F84168002999D15D
:20517C00D3E7012012F006FE002893D0CDE797490A689749D3690A7802EB82029E18F7885D
:20519C004743042012F0F6FD07F5166788B1042013F05AF806460220756812F0EBFD0028C8
:2051BC00CCD0A868C11BA06814F0BCFA0028C5D1ABE7082012F0DEFDD8B1082013F044F844
:2051DC0005466E6846B9012012F0D4FD20B1012013F03AF805466E68022012F0CBFD002843
:2051FC0095D0B068C11BA06814F09CFA00288ED18BE7012012F0BEFD08B10120C8E7102008
:20521C0012F0B8FD08B11020A5E70220AAE771490A68714953690A7803EB0216B78947439F
:20523C00082012F0A7FD07F5166780B1082013F00BF805466E6846B9012012F09BFD20B100
:20525C00012013F001F805466E680420C5E7012012F090FD28B1012012F0F6FF0646042013
:20527C009AE7102012F086FD80B1102012F0ECFF05466E6846B9022012F07CFD20B10220DE
:20529C0012F0E2FF05466E680420A6E7022012F071FD28B1022012F0D7FF064604207BE706
:2052BC0004205FE715F0A5FC08B1D0F89070042012F060FD58B1042012F0C6FF0646082056
:2052DC00756812F057FD002818BF002C68E7012012F050FD60B1012012F0B6FF0646082038
:2052FC0012F048FD002818BF002C3FF427AF0CE7102012F03FFDA8B1102012F0A5FF05463C
:20531C006E6846B9022012F035FD20B1022012F09BFF05466E68082012F02CFD002818BF44
:20533C00002C5DE7022012F025FD58B1022012F08BFF06460820756812F01CFD002818BF79
:20535C00002C2DE708200DE7032015F054FC08B1D0F89870022012F00DFD50B1022012F081
:20537C0073FF0646102012F005FD002818BF002CBBE7042012F0FEFC28B1042012F064FFD0
:20539C000646102008E7082012F0F4FC80B1082012F05AFF05466E6846B9012012F0EAFC8F
:2053BC0020B1012012F050FF05466E68102014E7012012F0DFFC28B1012012F045FF0646B8
:2053DC001020E9E61020CDE6EC500020500F0020D80F0020540F0020D90F00202DE9F04F0D
:2053FC000546DFF81C83DFF81CA3A878ADF1240D002800F0E080C149401F00F08580401E17
:20541C0034D0401E1ED00A3840F07081A888AF7BADF8080068898DF8127060B9ADF80E00F2
:20543C00A889ADF81000E988ADF80A102F89ADF80C70012000E00020AE498DF8130002AA05
:20545C000C46B0E0AC49AA88102002AB04F098FBB548583014F092F8041C00F0478120892F
:20547C000CF0D6F8204612F005FE3FE1102004F087FBC6B2A888814614F0AEFB08282DD0CC
:20549C00C400454604EB00146419D4F86C7104F5B2747FB1384615F0ECFB10B1384615F07B
:2054BC00D8FB384615F042FF384612F0E3FD606812F0E0FD58352F684C464FB138898442F5
:2054DC0003D12846394613F060FE3F68002FF5D1204612F041FA20460EF084FB45461EB90A
:2054FC0005F1CC0015F0B5FB00240094EA7951461020234604F044FB234600932A7A514664
:20551C00102004F03DFBF1E0102004F039FB5FFA80F9687800283AD16E8908F5B2770820C0
:20553C0000244FF6FF72A7F1180535F8181F8A4204D0401E04F10104F7D124E02E800320C7
:20555C0015F033FB6860C0B1082101706868A0F80160242015F029FBA86018B9686812F048
:20557C0089FD0AE0E10001EB0411C91988684B68012241F2707110F073FFE000012100EBA2
:20559C000410C019017508F1CC0015F060FB4546EA79B9F1080F0BDB5B4C2A7A10202146F0
:2055BC0004F0EEFAEA792146102004F0E9FA9DE0002400949BE76878002840F09780EF79B4
:2055DC002E7A8DF8097000248DF80A60A8798DF80C40EB7A8DF80B40AA7A8DF808004B498A
:2055FC008DF80F306F7A8DF80E2002AE8DF80D70326870680A6045464860DFF81881474E69
:20561C004349EF1D1020424606F14003009704F0B7FAC0B208B114F0AFFD0B2706F1140090
:20563C000097DFF8F4B00190EA7923465946102004F0A6FAC0B208B114F09EFD1C200090E6
:20565C0006F15C030193EA7959461020012304F097FAC0B208B114F08FFDDFF8C490EA7920
:20567C0010209223494604F08BFA0094EA7910205146234604F084FAC0B208B114F07CFDE0
:20569C0005F1080022490090424606F17803102004F076FAC0B208B114F06EFD00971F36E1
:2056BC0001962A7A10205946234604F069FAC0B208B114F061FD2A7A10204946922304F06B
:2056DC005FFA234600932A7A1020514604F058FAC0B208B114F050FD13F07EFC114B05F15D
:2056FC00F00040F6B831012210F0BAFE09B0BDE8F08FC046D9570110F9DC0110AD7001007C
:20571C00201B0020ED740110650202105F26002099010110CD910100D1DA0000BC2E0020C3
:20573C001DEF0110F1350020201B00202DE9FE4FDFF818536F681FB9BDE8F74F15F0F2BD9C
:20575C003878DFF80CB3C34EDFF80C83012818BF02280AD004281CBF0828102805D04028C0
:20577C0018BF802800F0A78069E115F0AFF80028FAD0012012F0FEFA20B1012012F064FD1F
:20579C0012F0A4FA082012F0F5FA20B1082012F05BFD12F09BFA3878FFF74EFC814698F803
:2057BC000100D9F80440002850D005F085FA14F073FD8246DAF80000009047689AF8060016
:2057DC0088F80300BCB10099484607F0A5FC022811D099F80010012902D0082965D02EE1E1
:2057FC0028B915F0ABFD00F5E8504C30A0600120A87011215CE00098017880290BD10820F1
:20581C00964930700A787869012A1ABFDBF824100978012114E0072030709AF8060014F085
:20583C00E3FE0446207BC10748BF9AF8060067D48A480178786901291CBFDBF824104978EB
:20585C00C1729AF8060088F80200BFE0B9F1000F11D099F800004F4509D1012818BF082877
:20587C0001D134BBF0E0002013F014FA21E0012802D0082817D0E2E0002CF3D015F05EFD26
:20589C000146A06801F5C241A83113F04BFF28B915F054FD00F5E8504C30A06011203070CD
:2058BC000121A97005E0002CDCD00820A870122131704846BFE098F80100002800F08880E2
:2058DC0005F0FAF914F0E8FC8146D9F800000090D0F804A098F8020014F0DEFC019099F8B6
:2058FC00060088F803003978402913D199F8060014F07AFE0446207BC1070BD599F80600CE
:20591C0014F0CAFC052113F017FB207B00F0FE00207399E014F0D4FF10F01F0F32D00120A9
:20593C0012F028FA20B1012012F08EFC12F0CEF9082012F01FFA20B1082012F085FC12F01F
:20595C00C5F9A878FFF778FB07467C68D4B1009907F0E2FB022815D03978012902D00829D4
:20597C000BD00CE028B915F0E9FC00F5E8504C30A06011203070012156E0082057E0002028
:20599C0013F088F90198484520D0009933480A78802A0BD10821317000780128DAF81400E4
:2059BC001ABFDBF82410097801210AE00722327000780128DAF814000EBF0121DBF8241016
:2059DC004978C17299F8060088F80200009832E014F076FF10F01F0F36D0012012F0CAF961
:2059FC0020B1012012F030FC12F070F9082012F0C1F920B1082012F027FC12F067F9A8787C
:205A1C00FFF71AFB074638787C68012802D008280CD019E0C4B115F091FC00F5E8504C30CE
:205A3C00A060012111203070A97003E064B1A870122131703846BDE8FE4F07F0DFBDBDE8B2
:205A5C00FE4F002013F026B9BDE8F78F7C50002058DB0100C80F0020780E0020CC0F0020F8
:205A7C002DE9F84F05004ED0DFF8E48298F80000092818BF0A2804D00B281CBF0C280D2838
:205A9C0001D1212062E1A878002115F037FD040008BF4220F6D0AF4FA978DFF8BCA239702A
:205ABC0098F8000010B9A8788AF8000004F14806F068417801F01201022902BF706900288A
:205ADC000C2012D0607AF0B1A07B012804D1B5F8030008B1812816DA6878402813DA20466B
:205AFC0015F01CFCB06808B907202FE1B561287801281FD1A07B00281CBF0128042819D131
:205B1C009648007808B9122020E195494A78824208BF0920F8D0F068417848070AD504F1CF
:205B3C00220180204A7F04F1380106F081FB08B10B200BE1687808B9112007E12878DFF81C
:205B5C002492DFF824B2012840F0AF8000212173F166217A012903D1B16968794871F4E011
:205B7C00012000212072E1726173254609F02CFE6060DBF8000080477C4A0146106802E0BF
:205B9C006A68426000680028FAD10846D9F8001088476968764848610021387815F01FF8F7
:205BBC003978012211200CF04EF8F0684178C80605D5284601F05CF9010024D0C6E0688C86
:205BDC000FF0D8FE85F82100F068007815F015F804001CBF94F8B000002807D0E87F40F0A3
:205BFC002000E877687D40F0180068752846FCF7D9FE0100E2D134B194F8B000012804BF07
:205C1C00284615F000F8F0684178C8071CD505F14204A18800291CBF3068002814D0227885
:205C3C008A4211D20F2015F075FB68B1F06801788DF800100F20A288ADF8012021788DF839
:205C5C000310694615F062FB98F80000A0B94949087800281EBFF068417811F0030F03D00D
:205C7C004548006815F04EFB112088F8000001212972FFF75BFD68E0284612F0B1FA00287E
:205C9C001CBFB168002960D0AA7B012A04D02A69808802EB800202E0486E2A69821895F81B
:205CBC00B81010460AF02EFA4FE0207A00284CD0DBF80010884705463878012114F08FFF1A
:205CDC0000202E4920720A683E7811460B68187A002802BF586D0378B3421FD0C9689142EA
:205CFC00F4D138789AF80010884224D114F0A4FC616888421FD112F0CDFC40F2014015F048
:205D1C0089FB1F491F4A204808600121107808F085FED9F800102846884716E01B4E3078F8
:205D3C000128DEDD084611F0B5FF14F0BDFC3078411E3170D5E7204615F0E0FAD9F8001019
:205D5C0028468847204611F053FD0020BDE8F28FC80F0020D60F0020D50F0020D40F0020EA
:205D7C00780E0020282E0020242E00204C0F002021920000880E00206C0F0020EC5000209E
:205D9C00480F0020C70F0020C1630000645100202DE9F043A24CA349A34E20700A22002091
:205DBC0008600D23A14840F2222102704380818085B09F4A9F48106037789F480770FF2FEB
:205DDC007178417008BFFF29B2788270F378C370357905717679467114D1FF2A08BFFF2B9B
:205DFC0010D1FF2D08BFFF2E0CD194490A7802704B7843708A788270CB78C3700A79027102
:205E1C00497941718E4902788E4D8F4E8F4F0A7043784B7082788A70C378CB7002790A71BB
:205E3C0040798B4A4871FF2028706870A870E87028716871002087490880F06B8649407834
:205E5C0008708649F06B007808701388844885490380F06BC06C08608349F06B90F83C0002
:205E7C0008708249F06B90F83D0008708049F06B90F860000870F06B406901797D484A1EFC
:205E9C000270F06B7C49C0783870F06B8069086008B912F0FFFEF06B7849C069086008B99A
:205EBC0012F0F8FEF06B416D75480C2214F058FA15F020FAF06B7349006A086008B912F0B9
:205EDC00E9FEF06BDFF8C081406AC8F8000008B912F0E0FEF06B6D49806A086008B912F01B
:205EFC00D9FEF06B6A49C06D002840D001220A75F06BC06D02681378C3F3400048B1F06BD3
:205F1C00C06D02681378C3F3C00000280CBF01200220487500208860C8600861F06BC06DB9
:205F3C00426890780870F06BC06D4268D0784870F06BC06D426813788B70F06BC06D4268FF
:205F5C005078C870F06BC06D426810790871F06BC06D426850794871F06BC06D4268907902
:205F7C008871F06BC06D4268D079C87101E000220A7501F013FB07280AD106F0E9F920785D
:205F9C004FF4804108F04AFD002012F083FE43E040480168884781460DF034FCD8F8000058
:205FBC0001688847684614F003FAD8F8002004208DF80000694652F8043F0020984736498B
:205FDC0008600FF095FFF068344A01883878344B014311804846196888470C21314814F0BF
:205FFC0018FE284615F082F915F07CF92E4800214FF6FF7201608280F06B90F858102B4899
:20601C00006814F0E9FA0121FF2014F0E8FD20784FF4005108F002FD05B0BDE8F08300BF3C
:20603C00C70F0020380F0020D04F0050700E00203C0F0020B63F0050400E0020E812005072
:20605C00500E0020480E002058DB0100C40F0020F63400209E0F0020C60F0020D40F0020FA
:20607C0052510020E0500020655100206651002063510020CB0F0020200F0020240F0020D4
:20609C0070500020280F00202C0F0020300F0020C44F0020242E0020E4500020A00F00202B
:2060BC00282E0020FC0D0020800E0020F85000202DE9FE4F0D46074628687C68BE6800284A
:2060DC003AD014F068FDD4F8F81081460120019008294FF0000088BF0198A968084202D166
:2060FC006968084205D0019880F00100C0B201281DD1D4F8D000B8B9C4F8D050C4F8D45038
:20611C000020C4F8E0000146C4F8E41094F80C31C4F8E810002BC4F8EC100CBF01980520C7
:20613C00D4F8D410087411E094F8080138B903202874484615F086F90020BDE8FE8FD4F8B1
:20615C00D4004561C4F8D45006232B74D4F8D4000021416194F80C01012809D1022294F852
:20617C000B318E49E06984F80C21194311F05EFB686810F0704F06D128B1042012F0D2FA17
:20619C00062012F0CFFA022012F0CCFA94F80801DFF80C82002840F08F80F06929688842F3
:2061BC0040F28A8094F80C01002840F0858094F8090120B1D4F8FC00B0F1FF3F7CD14846A8
:2061DC0015F040F9A868B24600280CBF04F58277071C6868031C0CBF04F583761E1CD4F8A3
:2061FC00F80009282CBF4FF0020BDDF804B0DAF80000D5F800904168B9F1000F41F00201D5
:20621C00416008BF191C32D04146A1F11008D4F8F810092910D3D8F800104A683188904787
:20623C00D8F80000C168DAF800000A4669469047BDF8000038800FE0D8F800104A6831780A
:20625C009047D8F80000C168DAF800000A46694690479DF800003870AB6803B15F44696832
:20627C0001B15E44DAF80000B9F10109CFD1D4F80051C36800221D4218BF019A102D18BF39
:20629C0082F00102002AF4D111F0704F06D129B1062012F02FFA042012F02CFA022012F04C
:2062BC0029FAD4F8D010002008740746C4F8D4703E46C4F8D0606EE0D4F8E800002843D15C
:2062DC00D4F8EC00002842D1307914F066FC4546D4F8DC002A68316940685268006891FAEC
:2062FC00A1F1B1FA81F1134602229847D4F8DC002A68716940685268006891FAA1F1B1FAD1
:20631C0081F1134602229847307914F040FC307914F045FC2046314603F070FE0021D4F891
:20633C00D000C4F8F0100068B0F5806F03D92046314603F063FE94F80E0160B931684868AF
:20635C0040F00200486006E0D4F8EC0018B92046314603F053FE3168486940F00100486193
:20637C00484615F06FF894F80801A0B9D4F8FC1004F17C05284614F07BF860B1D4F8D00039
:20639C0003210174384603F07DFD2846002114F06FF8002001900198BDE8FE8F0000078060
:2063BC00D40100102DE9F84FDFF8A09299F80000002115F0A3F8040004F1500602D112F000
:2063DC0069FC33E1207A08B9002140E0217B491C21733069407920B1C9B2814208BF43216B
:2063FC0035D004F14508002088F8070014F011FB7168D1F80320D4F810C022F07F4240F619
:20641C00C41303FB02CC4FF00B0E90FBFEFE0B2202FB1E00376880B24FF47A6148431CFA06
:20643C0080F0B86033688A489968216133690268B3F8030000281FBF706E0028A37B012BBE
:20645C000CD0938801EB8301814207D33C21204610F0CAFBBDE8F14FFFF768B97D4D28782E
:20647C00022809DBD068016810680969006913F059F908B10DF0C2FD70684178CA0604F1DE
:20649C0022071BD5A07B01280CD100212172287810B1204614F032FF6F480078022108F0AC
:2064BC00BDFAAEE0306890F8631001F0E00141F0860180F8631069494166A2E0356805F105
:2064DC00020A0021AAF8001005F1730B407A10F069FB25302076207E8AF80C0020460BF0B7
:2064FC00B7FF207D8BF815000020617D8BF816108BF81800C5F890003888401C388080B200
:20651C000FF038FA84F821007068417811F0030F42D1007814F071FB00283DD000F1B0011B
:20653C000878032806D1E27F930603D442F02002E27731E001280ED1E07F40F02000E07720
:20655C00607D40F0180060752046FCF72BFA204614F059FB20E008B10879E8B1E07F00F0C7
:20657C00DF00E077B068002804BFF068002810D17068007D83280CD0617D03280A4607D059
:20659C00C80648BF01F0EF02100748BF02F0F70262752046FCF706FA617D002201F0FE01FF
:2065BC00204607F0A9FD0020AAF8300005F13E0094F8211001F03F010170A968628B01EB4D
:2065DC008201A9630021018298F80020828371684A78910709D5BA887A80A17F01F03F0119
:2065FC0041F08001A17701218183E07FC10608D5A86B7988A63100EB8100686702218BF8C0
:20661C000010174A107888B1387F022818BF03280CD1144F38680D3014F0D8FE30B93868C9
:20663C00C11D062204F1300013F09AFEFFF77EF84CB17068017E480605D54946BDE8F44F19
:20665C00032014F063BEBDE8F18F00BFD50F0020EC50002064510020C70F002000204E0059
:20667C00880E0020680F00202DE9FE4F01200190A24EA348A34F0278112A02D0122A0DD02F
:20669C0036E1A14C2078002114F038FF9F490546087810B100220A70F2E0002D00F01B814B
:2066BC009B48DFF87082DFF8709238600122217811200BF0C8FA286D696D009141F60802BA
:2066DC00009B96495C78E30640F1DC80044641F20443B4F802C09C451FBFB4F81AE09E4560
:2066FC00B4F832C09C454FF4A05A1CD095F80EC0BCF1010F04BFB5F89EE09E4513D0B4F85E
:20671C0002E041F20A439E451FBFB4F81AB09B45B4F832E09E4506D0BCF1010F04BFB5F840
:20673C009EC09C4503D13380C7F800803DE0002340F2FE3B4FF0180C0CFB03FCA444BCF888
:20675C0002E0A6F800E0BEF1010FF3D0BEF1000F55D0AEF1020EBEF1010F50D9BEEB0B0EFF
:20677C001AD04FF48063BEEB030359D04FF4406BB3EB0B0343D09B1E012B40D91B1F3ED022
:20679C0040F2FA3BB3EB0B036FD05B1E61D0D81E46D0001F44D06DE0B4F800C040F6010EA4
:2067BC00F4452CD15B1C022BC4DD3868404525D1A06C0168A06C026810790831032804BF8C
:2067DC0094F86C00012811D1D1F80E0000281CBF088B00280AD091F8220010F0E00F05D1BB
:2067FC0001F11E0014F07AFD012870D0A6F800A0C7F80090A06C01680020087167E0A87B84
:20681C0001281CBF0428A6F800A0C7F80090087D0028CAD08868401C002288600A82C4E7CB
:20683C00A87B012806BF41F20243ACF80230ACF802A03088904215D1CA68088A4D8A521C1E
:20685C00CA60401C82B2AA4238BF2A464A82088208E000994A78D1064CBF816CC16E086808
:20687C0000210171C7F800909FE7002012F012FA832003E0002012F00DFA842014F03AFED7
:20689C00012038E0438E41F204455C1B1CD0A41F1AD03380408890420CD1CA68088A4C8A82
:2068BC00521CCA60401C82B2A24238BF22464A82088206E0087D20B18868401C0022886069
:2068DC000A8241F20643C846C7F80080338001211348007809E014F08CF958B1C088114982
:2068FC000F4A308039600121107808F097F801E0002001900198BDE8FE8F00BF9A0F0020C4
:20691C00C80F0020480F0020D50F002068510020756B0210791C0000C1630000C44F002032
