:20000000003C0120613B010039FB021039FB021039FB021039FB021039FB021039FB021042
:1C00200039FB021039FB021039FB021039FB021039FB021039FB021011FB021002
:20003C002DE9F04FC54D4FF0FF30686000272F604FF0020AC5F808A0ADF1240DEF60102053
:20005C0018F097FC286140B1076005F1140141602C69876005F15006E66093A06861082624
:20007C00EE614FF0FF34AC6140202D6218F081FC05F114043946B24B686218B1CA00875064
:20009C0082185360491C0829F7DB8AA028650326AE654FF0FF336B651820ED6518F069FC64
:2000BC00002828660AD087A10160A649416087A28260C16002D087A202614161AF624FF0FF
:2000DC00010BC5F830B04FF0FF30E86208206C6318F04FFCA86318B1076005F13C0141604A
:2000FC007EA00626E8634FF0FF346E6405F128032C643020AB6418F03CFC0646002EEE64EF
:20011C0018D07CA03060904870607CA1B160F06010D07CA131617EA2706106F118042260F4
:20013C00F06107D07CA1316280A2706206F128042260F06219F0FEF814F036FA061C00F09B
:20015C005B8517F037FD81498446384631F80C4F002C40F04D854FF6F8720A804E607C4CF5
:20017C0020708F607068E060604617F0E3FE04F140063946304619F0D9F8764841F2883289
:20019C003B4626617449009004F14C0014F0AEFB724E73493A46152306F12A0000901020EB
:2001BC0008F0C6FF6F4910203A46534608F0C0FF4FF480605946324605F0E6FE40F2024027
:2001DC005946721C05F0E0FE40F203405946B21C05F0DAFE40F206405946F21C05F0D4FE68
:2001FC00321D40F21140594605F0CEFE721D40F21B40594605F0C8FEB21D40F20D4059464E
:20021C0005F0C2FEF21D40F21240594605F0BCFE06F1080240F20C40594605F0B5FE06F16F
:20023C0009024FF48360594605F0AEFE06F10A0240F20740594605F0A7FE06F10B0240F246
:20025C001440594605F0A0FE06F10C0240F21640594605F099FE06F10D0240F21540594618
:20027C0005F092FED94910204FF0FF3208F060FFD74910204FF0FF3208F05AFF1020DFF8AC
:20029C0054930090D54AD448132349460190102008F04EFF202018F06CFB0146D0488046F1
:2002BC00816000296FD05FE0576F726B207769746800C046536574204175746F436F6E6EA2
:2002DC006563740044697361626C650047726F757020410047726F757020420053657420E9
:2002FC00436F6E6E2050485920507265666572656E63650031204D62707300C032204D6280
:20031C00707300C03120262032204D62707300C0436F64656400C0463120262032204D6266
:20033C0070732C202620436F646564004175746F20504859206368616E6765001C310020B0
:20035C0085500100C98F0000C5BB0000F4210020E00F002085290020BD6401004822002015
:20037C009D2A01005D5301004FF6F870C01D15F045FFCB49102008F114020090112301916C
:20039C00494608F0D5FE03238DF818A058468DF8193004228DF81700C2498DF81A200DF18E
:2003BC000E0338460A6809791A600DF11702197159460DF057FD5846594606AA0DF052FD5A
:2003DC00504659460DF119020DF04CFD032059460DF11A020DF046FD042005210DF10E02F9
:2003FC000DF040FD04F1140004F13802AE49C8F80400102008F09CFE207816F08DFBAB49D8
:20041C000246102008F094FE207816F085FBA8490246102008F08CFEA6491020FB2240F643
:20043C00480308F085FEA449102008F081FEDFF88C9209F1180009F10C010EF03FFCA04916
:20045C00C9F8080018F070F9DFF87882D9F808004FF4E0214246521E15F09EFDD9F80800E7
:20047C004FF4E021424615F097FDDFF83883D9F808004FF0C0514246521E15F08DFDD9F8E8
:20049C0008004FF0C051424615F086FDB84609F12400C8223B46C649CDF8008014F026FAD9
:2004BC00C4484FF6F877C9F80400781D11F0DEFE207816F031FB1036034604225046BE490D
:2004DC0000901020019608F033FE04F1E40704F1E400C02208904146384610F0A8FF4FF65C
:2004FC00F876F61D0820401E27F8186BFBD14FF0FF30414612F0BEFEA06041464FF0FF32C1
:20051C00C9A02860284616F0D3FDA068DFF82C9358B1AF684FB1494607270861CD4E0F700C
:20053C002846CE6015F0E0FDA0684D4629784246CCA316F050FCE06800214FF040424FF033
:20055C00FF3318F0EFFE5FEA000BF4D0002002900DF1160102AA03A816F03EF8002840F08E
:20057C00A481BDF80C00102840F09B8120789DF81610884240F09581029908884FF6FF72B1
:20059C00824200F08E810E46307891382AD01F3803D0203800F0828183E13379A0682A788E
:2005BC007E2B04D07F2B0AD10989B4A301E0317AB6A30091521CD1B2002216F00CFC3179F3
:2005DC0006F1080018F0AAFE6BE1C046217201004D590100E56B010020B20100341B002030
:2005FC00D41D002070780E3841D0401E26D0401E00F032812E3840F05481B0780C2840F043
:20061C005081F778A068297887B9F279012A08D0022A08BFC6A205D0032A0CBFC5A2C7A22F
:20063C0000E0CCA20092891CCBA301E0491CCFA3C9B2002216F0CFFB0C2014E0B08842F2FA
:20065C003201814240F02D81B278A06829781A2A1ABF0092CAA3D2A3491C0022C9B216F03E
:20067C00BAFB42F23200314610F0E4FB19E1B168B788087841F20542BF1A25D0A7F62B47C4
:20069C00002F40F00E81002840F00B81C878009008790190A1682878D5A38E46C01DC1E017
:2006BC002CB20100E5B20100D5720100D96C02102D6D02100D520210397F0110902400204E
:2006DC00855D01000E000580B168491C91F902A0002840F0E6804A78087800EB022017F0CA
:2006FC0015FA95F800C0D4F808E00746082F80F2A780BAF17F0F00F088800898F90001EBFB
:20071C0007114618727C531C73748A18121882F80CA0727C4FF00508434640180C30002199
:20073C0092FBF3F303FB08F3D21A4346727410F9012B5B1E0A4411B2F9D1404691FBF0F05B
:20075C0040B2B074F37C002B5FD110F11F0F4FF0000904DD337D022B18BF002B2ED196F9D8
:20077C00120010F11E0F07DA10F1290F04DD337D012B18BF002B17D110F1330F04DD10F137
:20079C00280F42DA337D33B910F1320F3DDA04224FF0020913E004224FF001094FF00608D6
:2007BC000FE0C0460E0000104FF00108424608E0D18001002F75010005A6000002224FF04D
:2007DC000208737D984502D1B07D022801DB98451BD0308811464B4615F016FC0120F0741C
:2007FC00707D80451CBF0020B075B9F1000F06D0B9F1010F14BF4FF002084FF0060886F8DB
:20081C001580D4F808E095F800C0F8000899CDF800A000EB0710401890F91200CAA3019035
:20083C000CF105000FE0C04653696D706C65205065726970686572616C00C0468027002042
:20085C000CF10100C8A3C1B27046002216F0C3FA27E0C04691D300000820002107F00AFE4C
:20087C001FE0C0463D3D3D3D3D3D3D3D3D3D3D3D3D3D3D3D3D3D3D3D00C046C04D545520B7
:20089C0053697A653A20256400C046C046432056696F6C617465643A20256400084601F0F5
:2008BC0087FE029808B118F024F85FEADB70FFF442AE206918F02EFD00287FF43CAE2069DF
:2008DC00064618F023FD864208BF002602D0866815F0AEFC002EECD03078401E082800F252
:2008FC007F81DFE810F05801EF00C900A5008F0075007B017501090070684788384617F034
:20091C0005F9A1682A7808280EDA089BC10001EB0011C918C87D012840F06281B9493A46B5
:20093C00102008F005FC5BE1571C8FA39CE0C046324D00C0434F44454400C046556E6578CB
:20095C00706563746564205048592056616C756500C046C0314D00C0504859205570646139
:20097C0074656420746F20257300C046504859204368616E6765206661696C75726500C03E
:20099C005048592055706461746520537461747573204576656E743A203078257800C0465C
:2009BC00504859204368616E6765206661696C7572652C207065657220646F6573206E6FFC
:2009DC007420737570706F7274207468697300C002200DF11B0114F069FB002840F0008135
:2009FC00032001210DF11B020DF03CFAF8E0C046525850683A2025642C20545850683A201B
:200A1C00256400C07768787A48B17F4800902978A06800227DA3C91CC9B216F0DCF97A4868
:200A3C000090BA49FA880023102008F081FBD7E072681079A1682F781278DAB1521E10D08F
:200A5C00521E08D0521E40F0CB8000280EBF73A3009077A307E0002808BF7BA303D07FA3A9
:200A7C0005E018B983A3FF1C8846ABE085A3FF1C8846A6E088A3F6E77768A2682878396841
:200A9C00491E0CD0491E08D00E3912D179680B780093498884A3019105E08CA300E090A3E6
:200ABC00796809780091001DC1B21046002216F092F93868B0F1004F00F09280786815F017
:200ADC00B7FB8DE070680078010923D24009C0F087800E2017F02AFB002840F081806A6807
:200AFC00A8689168814213D0B0F1FF3F78D0116951F830702FB901EBC001486815F0F4FA69
:200B1C006EE0116901EBC0014968C0B2884767E0D068F3E70D2017F009FB002860D1696897
:200B3C00A8688968814208D0B0F1FF3F09D0401C15F01EFDB0F1FF3F02D1002015F018FDDD
:200B5C00A8600BF09FFC4BE0525353493A25642064426D2C2041564720525353493A25642B
:200B7C002064426D00C046C0436F6E6E656374696F6E2068616E646C65206973206E6F7457
:200B9C0020696E2074686520636F6E6E4C6973742021212100C070682F78D4F808800078E9
:200BBC007F1C38B1801E1BD1022007A914F07EFA50A304E0002007A914F078FA50A39DF818
:200BDC001C000090F9B24046002216F004F907E07068B0F801000CF035FC05E012F0E8FC97
:200BFC00706808B115F024FB304615F021FB60E6401C0628FFF4AAAA17F00FFF09B0BDE803
:200C1C00F08FC0460D2B021040E2010050617373636F64653A20256400C046C0426F6E6468
:200C3C002073617665207375636365737300C046426F6E642073617665206661696C6564D3
:200C5C003A20256400C046C0456E6372797074696F6E207375636365737300C0456E637243
:200C7C00797074696F6E206661696C65643A20256400C04650616972696E672073756363AF
:200C9C006573730050616972696E67206661696C3A20256400C046C050616972696E6720D4
:200CBC007374617274656400416476205365742025642064697361626C65642061667465F9
:200CDC007220636F6E6E20256400C046416476205365742025642044697361626C656400C1
:200CFC004164762053657420256420456E61626C656400C04368617220333A20256400C0C9
:200D1C004368617220313A20256400C0F164010038B586B004468DF805104FF6FF72012011
:200D3C00ADF80220090ADFF8545AADF8000002238DF806108DF8043069462A78204618F05B
:200D5C00E1FA162803D12978204618F0D7FA07B030BD3EB504000D461ED0DFF8240A006861
:200D7C00224618F0C7FAFF2815D000200090002301AA294620460DF0DDFC60B99DF804003F
:200D9C0000F075F9C00606D59DF8040000F06FF910F0040000D001203EBDFEB5164615240F
:200DBC004FF6FF7290420D4615D100208DF80400DFF8C8799DF80400F97988421AD232465C
:200DDC00294600F03AF800B100249DF80400401C8DF80400EEE718F089FA50B100F0A2FB25
:200DFC0040B99DF804003246294600F026F8002400E014242046FEBD7CB50D4604460621FE
:200E1C004C43164600F080F8A8B900F078F890B99DF80700002E14BF054320EA0505E9B2C5
:200E3C00814206D08DF807506A460821A0B216F003F9012076BD002076BD2DE9FC410646AE
:200E5C00344606235C438846154600F05DF8002852D100F054F800284ED1DFF82079387AD6
:200E7C00800017F03DFB040002D100F02BFA43E0397AE03689062246090EB0B216F0B4F89D
:200E9C00002835D1204600F058F85FEA08000ED13A7A9206120E0021204616F038FD38BB11
:200EBC003A7A92000021204617F09AF916E0214600F030F858B9280004D02146002000F0B6
:200EDC0029F810B900F0DDFB16E0A0F800808178A9420DD085700DB900210180204600F0C2
:200EFC002CF8397A89062246090EB0B216F0A4F800F0C7FB012000E00020BDE8F6810622D6
:200F1C00FF21684616F003BD20346A460821A0B216F06AB870B5DFF864381D7A002200E049
:200F3C00521CD4B2AC4206D231F824608642F7D101EB840070BD002070BD10B50021DFF8F7
:200F5C003C280AE030F82130DB4320F8213000EB8103491C9C78E4439C70137A9942F1DBD8
:200F7C0010BD2DE9FE4FDFF814480646207A0F4691469B46800017F0B3FA5FEA000803D1A6
:200F9C0000F0A0F90A206CE00C9D0297B246062717FB0AF7029A07F12000082100F064F893
:200FBC008DF80400304600F09FF8227A9200FF21404617F015F99DF804000090E036217ACC
:200FDC0089064246090EB0B216F036F8009E02990643206A082200EBCA0017F0F7F8BDB1E2
:200FFC000299887900232A4600F0010018F07AF900281CBF9DF93C00002803D0DFF88417F8
:20101C000120087007F123002A4600F02CF806435FEA090205D007F121001C2100F024F8A8
:20103C0006435FEA0B0205D007F122001C2100F01BF806430D9A62B107F1240000F013F8AC
:20105C00054625370EAA0421B8B215F0F5FF05432E43207D08B100F09AFA404617F048FA2B
:20107C00F0B2BDE8FE8F102180B215F0E5BFE0B50623584320306A46082180B215F0B4FF08
:20109C0010B99DF807000EBD00200EBDDFF8EC06007808210CF00ABB38B50025DFF8DC46E3
:2010BC0019E0206A062313FB05F300EBC5022033082198B215F098FF58B1206A0622FF2173
:2010DC0000EBC50017F08CF8206A00EBC5010022CA716D1CEDB2E1798D42E2DB207D10B1B5
:2010FC00BDE8314053E231BDF8B5DFF89016DFF89836C9791E680C460A4600E02A46D5B28B
:20111C003DB1551ED2B2324412F8017C8742F5D12C46E4B220464D1E07E01718165C7F78EA
:20113C0017541A680244401C5670A8421A68F4DBAC4204DABDE8F840052015F07DBFF1BD46
:20115C0070B50024DFF8345600E0641CE879E3B283420BD22B6AE6B20622FF2103EBC600A8
:20117C0016F0D5FB0028F0D0E0B270BDDFF81C26117819B1DFF810060168087870BD38B57A
:20119C0000200024DFF8F45503E0E0B200F008F8641CEA79E1B2914201D20100F5D032BD99
:2011BC002DE9F84F83465D46062313FB05F58EB005F1200701AA0821B8B215F015FF00283F
:2011DC0073D10622FF2101A816F0A1FB00286CD1DFF8A865307A800017F082F95FEA0009D5
:2011FC0003D100F06FF80A2061E01C22FF2103A816F0F6FF327A9200FF21484616F0F0FF58
:20121C0005F123040AAA1021A0B215F0EDFE60B91022FF210AA816F07AFB30B99DF80A004E
:20123C0001A900F0010018F059F8082200F042F801AA0821B8B215F0FFFE8DF8000003AAD8
:20125C0005F1210000F03AF8074605F1220003AA00F034F8804603AA1021A0B215F0ECFE26
:20127C00044605F1240003AA102100F028F88246253503AA0421A8B248EA070715F0DCFE93
:20129C002743317A9DF800504AEA0707074389060BF1E0034A46090E98B215F0CDFE074333
:2012BC00484617F025F93D4300E0002528460FB0BDE8F08FFF2101A816F092BF1C2180B2FA
:2012DC0015F0BABE042015F0EDBC2DE9F84187B0FF208DF80000DFF8A454E87917F000F949
:2012FC00040003D1FFF7EEFF0A2030E01022FF2103A816F075FFEA79FF21204616F070FF08
:20131C000622FFF7D7FF03AA1021022015F094FE064603AA1021032015F08EFE06436A464F
:20133C000121042015F088FE0746E9792246052015F082FE054601AA0621062015F07CFE3D
:20135C00804600F09EF93E432E4348EA060008B0BDE8F081DFF824144088097815F0CCBD46
:20137C00F0B5A9B006460D46144617F0BFFF08B91420ACE0A4220021684616F031FFADF8A4
:20139C0000600DF12607DFF8F463F078B17B8DF80400F07B8DF8A000279861F30000B17B8C
:2013BC0027908A074CBF0222002220F0020010432790CA064CBF4FF48072002220F4807026
:2013DC00104327908A064CBF4FF40072002220F40070104327904A064CBF4FF48062002245
:2013FC0020F480601043279049074CBF0421002120F0040008432790307C02280CBF01205A
:20141C000020787417F066FF412807DB307C00B108209DF8991008438DF89900B07CB8B12C
:20143C000121B974202206F18C010DF1390016F0CDFE202206F1AC010DF1590016F0C6FE6C
:20145C00202206F1CC010DF1790016F0BFFE00E0B874707B8DF8050090B1DFF834731022BE
:20147C0007F110010DF1060016F0B0FE9DF89900082805D1102239460DF1160016F0A6FEEC
:20149C00307B8DF8260030B11022DFF808130DF1270016F09BFE307948B1022D18BF032D39
:2014BC0003D1279840F002002790012100E000219DF899000143B0788DF8991000B10420D4
:2014DC0001438DF899106846214617F0FFFE29B0F0BD2DE9FC41154615244FF6FF72904270
:2014FC0088460DD10027A54EF179F8B2884216D22A464146FFF780FC00B100247F1CF3E791
:20151C0017F0F4FE50B100F00DF840B99DF804002A464146FFF770FC002400E01424204633
:20153C00BDE8F681002100910023417901AA01F00101801D0DF0FEB870B504460D4606200E
:20155C004543082B88B0164603D1300758BF223500D521351C220021FFF7ADFE01AA1C2194
:20157C00A8B215F041FD80B99DF81E00C01F0A280BD29DF830000090F20801AB02F00102E8
:20159C0006F00101204617F09DFE08B070BD38B517F094FE0024794D0FE0286A0622FF2111
:2015BC0000EBC40016F0B3F928B9286A00EBC401002017F07FFE641CE4B2E8798442ECDBE3
:2015DC0031BD3EB50C46002501460095002301AA20460DF0AFF838B99DF80400FFF747FD1F
:2015FC00C00601D401203EBD00203EBD2DE9F041694F3C6806468846154603E02089B04267
:20161C0024D02468002CF9D10C2016F069FF040019D0268184F80A8000202060E07245B11C
:20163C000821284616F09CFA606018B900F029F80AE06060396811B93C6004E0014608686D
:20165C000028FBD10C600CB9152018E017F02EFE08B1002013E00120E0722A46414630463D
:20167C00FFF77EFE04464548C06900281CBF4368002B03D000220021304698472046BDE88D
:20169C00F081204616F034BF38B505464248046803E02089A84204D02468002CF9D1012043
:2016BC0032BDE07A012807D100F05CF820B13348007804210BF0FAFFE17A491CE172284622
:2016DC00C9B200F002F8002032BD38B5022904462A4D02D003290DD01EE042F6C921FFF7B0
:2016FC0017FB02001CBFE869002818D04368B3B105210CE042F6A621FFF70AFB01001CBF87
:20171C00E96900290BD04B684BB102460421204601B0BDE830401847BDE8324000E031BDCB
:20173C0010B51D4A1468002101E0214624686CB123898342F9D1206800290CBF1060086044
:20175C00606808B116F0D4FEFFF79BFF002010BD024604201049096819B10B899342FAD163
:20177C00C87A70470C48006828B1006818B1C17A0029FAD17047002070470000042000208D
:20179C00680F0020E83600207C360020E73600202434002054340020803600202DE9F0430A
:2017BC0085B0064600208946009090461C46B179002304AA30460CF0BDFF20B1FFF7C0FC29
:2017DC008DF810001BE0D4B19DF810300620434323336A46102198B215F006FC78B910226C
:2017FC00FF21684616F093F848B9B079314600F0010017F073FD10B1194901200870194F41
:20181C009DF81000F979884227D201200390009443460C980D990E9D019002914A469DF8C3
:20183C0010003146FFF79DFB044655B1397A9DF810008906E0302A46090E80B215F0FCFB7B
:20185C000443200005D09DF81000FFF7A9FCFFF723FC204605B0BDE8F0831520FAE700BFD3
:20187C00E8360020042000202DE9F84F012014F0AFFD012816D1DFF898663078002117F0E7
:20189C0011FD040004BF002015F00CFA00202072201D0DF049FE05F011FD050003D181207C
:2018BC0017F0FCFC30E301206871DFF86826DFF868064178491C4170A879A072402031784B
:2018DC0011700CF067FD2860616D4A78206DD10620D5816C0A681179032908D0816C086850
:2018FC00007903280CBF0120002015F0DBF9206D816C0A6890F86C0002F1080701281CBF5D
:20191C00002015F0CFF9216D486F296800F5B060C8604AE0C16E0A681179032908D0C16E33
:20193C000868007903280CBF0120002015F0BAF9206DC16E0A6890F8980002F1080701283A
:20195C001CBF002015F0AEF9226DB5F87401D2F8A0102A68DFF8C435DFF8C465D16097F877
:20197C002690B9F1030F1BD8DFE809F002050E1101F5B06101E001F53471D16005F59A7147
:20199C001888088718880EE001F5355101E001F6B871D16005F59A7130880887308802E0DA
:2019BC0001F5B061D160A5F8740106222868DFF87465C168DFF8708501F59071C160B91C77
:2019DC003878C0F3801085F82E0105F5947016F0FDFB042207F10E0105F1240016F0F6FB12
:2019FC00306895F8069000F10C03042207F10E0103EB491016F0EAFB3068AB7900EB4313B4
:201A1C00032207F1120103F1100016F0DFFB05F12C09787D89F80200022207F1160105F1CA
:201A3C00300016F0D3FB022207F1180105F1320016F0CCFB022207F11A0105F1340016F0F5
:201A5C00C5FBB9F808006884022207F11C0105F1360016F0BBFB99F80200B9F80A10400046
:201A7C0089F802000901B9F80400A9F80A104000A9F8040089B2B9F806004000A9F806008F
:201A9C0003046A8C521CDB0B5A438A4201D280B230B998F8000080210BF008FE3B2133E1E0
:201ABC0005F12E01284617F0F5FB0520A8814FF01C0A284617F0EAFB052207F11E0105F13F
:201ADC00610016F083FB97F82300400989F8000017F0D8FB688205F59A72618D401AD08027
:201AFC0005F1610197F82300DFF8407400F01F0089F80F00284617F0C1FB616D4A78206D48
:201B1C00D1064CBF816CC16E41F62102086800210171A97938681AFB01F142520021AB79AC
:201B3C001AFB03F303445980AA791AFB02F210444160616DDFF8F8034A78D1060DD5DFF84B
:201B5C00F4138A7851060AD5DFF8EC23138841F20A418B4208BFDFF8E403C5F89C01D5F8B2
:201B7C009C11284688473A68A97902F10E031AFB01F15854AA7938681AFB02F202440020B2
:201B9C00D0733968A87901F10E021AFB00F0115C89F80D10606D4178CA061DD595F89601A6
:201BBC0008B915F07FF8A97938681AFB01F1014495F89601421E0A74A87939681AFB00F0F5
:201BDC000844002141743A68A97902F112001AFB01F1002242522BE0A97938681AFB01F16D
:201BFC000144206D90F840200A74A87939681AFB00F00844216D91F841204274206D396822
:201C1C00AB79403001F112021AFB03F34188D15205F5CB710078012200F0030082400A7017
:201C3C00226D92F84000800814BF0120022008713968A879DFF808B301F1140231681AFB0E
:201C5C0000F301EB4010D050A87939681AFB00F00844BC498161DBF814000078C107DBF825
:201C7C00141009784CBF1F200F208A07DBF81410097848BF40F020004A07DBF81410097801
:201C9C0048BF40F040000A073168AA7901EB421348BF40F080001872A979306800EB41126A
:201CBC000B2050723168AA7901EB42100421A64A81721078012806D13168A87901EB401299
:201CDC000121D17207E0DBF824003168AA79407801EB4213D8723168A87901EB40121F216E
:201CFC0011763068AA7900EB421100204876A8790CF094FAAA79316852018850AA7931681C
:201D1C005201885820B90721284615F009F9FBE08E48AA79016801EB021017F0ABFAA879F6
:201D3C0031688A4B01EB4012196801EB00105060A979306800EB41125168C9F83C10AA79CD
:201D5C0052018158C9F84410042198F800000BF0ADFC616D4A783868D10648BF02210AD4BE
:201D7C00A9791AFB01F101440A7C02F00302022A14BF04210621B9F8042095F806C04FF4A6
:201D9C00C8738A18698AAA615143B1FBF3F35B1C6B611AFB0CFCD5F800E06044DEF80CC0D3
:201DBC0040F6C41101FB02C2D21AA2F5A8628260AA7938681AFB02F283189A682B689A60D7
:201DDC0000F10C03AA791AFB02F20C309B5C03F0EF038354A8793A681AFB00F002F10C0302
:201DFC000C321B5C03F07F031354A8793A681AFB00F002F10C030C321B5C03F0F00343F09E
:201E1C0002031354AB7938681AFB03F31844427B02F0F00242F001024273AA7938681AFBAC
:201E3C0002F2024490682B6818613068AB7999F802C000F11402686940005B0111FB0C00AD
:201E5C0000F5F660D05095F8960104280DD13068AA7900F114034FEA421C143053F80C20B8
:201E7C00AB795B0102F56162C2503068AA7900F114034FEA421C53F80C20C5F83421AA79F4
:201E9C0000EB4210C37C03F0F00343F00403C374DBF830003268AB79006802EB431CB9F82D
:201EBC00062042436423B2FBF3F35943A1F59661CCF81C103068A97900EB4110C27E02F000
:201EDC00F00242F00402C276A97938682A681AFB01FA00EB0A01516028460E2117F0C6F916
:201EFC001B4907200870204613F09AFD19488178880704D5AA790021204617F0B3F9286814
:201F1C001549164A41618261BDE8F14F03F0B8B8D50F0020D70F0020780E00208E0F0020AD
:201F3C00900F00209C0E0020C70F0020980E002081010210C00C00209A0F00204DE50110B4
:201F5C0088B30100980C0020CC0F0020A40E0020C80F0020200E0020C5BF000002048080C9
:201F7C002DE9F84F054688B0A978DFF83C66002710294FF0060A3CD8DFE811F0110012031A
:201F9C001203120312033C00CF0012031203750215010001C70212034B028D020A0368787C
:201FBC00002826D117F05AF9044617F053F9054617F04CF98DF8000022461021022015F013
:201FDC003BF82A461021032015F036F86A460121042015F031F89DF80000012818BF0328D7
:201FFC0007D1012017F02EF902460621062015F023F8D5E268780028FBD195F80CB06C8920
:20201C0000900023E97801AA01F00101281D0CF091FB00284FF0010875D19DF80400FFF7E0
:20203C0026F88146BBF1080F307A08BFB846800016F056FA050003D1042014F033FEAFE2D4
:20205C0070789DF8041002280CBF0120002000905B464A462046FFF76FFA1422002102A816
:20207C0016F0BEF89DF804001AFB00F0243002AA102180B214F0B8FFB0B91022FF2102A867
:20209C0015F045FC80B99DF804001AFB00FA0AF1250306AA042198B214F0A6FF02AA09F06D
:2020BC000101204617F0CAF8317A9DF804008906E0302A46090E80B214F096FF98B92846DF
:2020DC00FEF73BFFBA4609E005EB8000018819B18278204615F07EFA0AF1010A317A5FFA22
:2020FC008AF08842F0D3B07A30B95FEA897003D53178204614F000FF9DF80400FEF7F4FFFD
:20211C00284616F0F5F97078022805D1B8F1000F02D0204610F0F0FF42E2A888FFF700FB35
:20213C0017F088F80028F7D1707D012808D1FFF726F8706A77750422002116F051F817E0B6
:20215C00B07D012803D1FFF7C0F8B77510E000240AE0706AE5B2415D012904D1E0B2FFF7CB
:20217C001FF8716A4F55641CE0B2F1798842F0D3502015F02FFBFEF78FFF11E217F096F8FA
:20219C0000280CD0F06900281CBF0468002C07D0286900906B7B2A7B6989E81CA047FEE1EC
:2021BC0068890121F1E168780024002840F01A81A879C10740F116810822002105A816F078
:2021DC000FF8A88817F092F8040076D06F694FB30622002107F1110015F099FB68B30622C9
:2021FC000021384615F093FBD0B9387C00F001084FF0000909F1010987F81190002000903F
:20221C0000230022414607F111000CF093FA00285FFA89F002D10028ECD101E000280CD1AC
:20223C00002068610622607900F001008DF81A00A11D05A815F0CAFF1FE06F69EFB1387CA4
:20225C0000F001008DF81A00062207F1110105A815F0BCFF6079012805D10622A11D04F180
:20227C000C0015F0B3FF062207F11101A01D15F0ADFF387C40F002006071A8794107207926
:20229C004CBF40F0020000F0FD002071A9790A0754BF00F0DF0040F020002071A9799DF8BA
:2022BC001B00890801F0010108438DF81B00A9790A074CBF0821002108E0FFF753FA00289D
:2022DC00ECD0307804210BF0F1F9E7E708438DF81B000020009000239DF81A1004AA05A8CE
:2022FC000CF028FA20B1FEF72BFF8DF810001AE06869C0B19DF810001AFB00FA0AF123030E
:20231C006A46102198B214F06FFE60B91022FF21684615F0FCFA30B99DF81A0005A900F0BB
:20233C00010016F0DBFF9DF81000F179884255D2E8680021039105A90269019002924FF618
:20235C00FF78686900902B69AA689DF81000FEF708FE0446AF88B06A48B906F11801009106
:20237C000223924A4146012016F060FFB062B16A19B3FF200390022200230292019307A86A
:20239C0000900DF11203328B384605F0BDFA68B99DF812009DF8131000EB012290B228B1EE
:2023BC00B06A418992B23846FEF7F7FC328BB06A0023414616F036FFB062200005D09DF81B
:2023DC001000FEF7EDFEFEF767FE200007D1707A0028A88804D1FFF757F903E01524A888F6
:2023FC00FFF79EF9F06900281CBF4368002B0FD06A78A888012198476878002808D1A8790E
:20241C00C10705D5F369A88822465C680321A047BEE0687806281BD1A88816F067FFB8B19E
:20243C00F17C012904D013D3032907D00CD30FE04179A8880022FFF7D9F809E0002200215F
:20245C0040F2094003F0A0FDA888052116F0E6FEF06900281CBF4368002B03D06A78A888FE
:20247C00022198479BE000970023E97801AA01F00101281D0CF05EF90028F3D19DF80400ED
:20249C001AFB00FA0AF1250305F10C02042198B214F0D2FD83E0F06900281CBF4368002B13
:2024BC0003D0A888002200219847707810B9A88805216AE0A88816F019FF040070D0A87AD6
:2024DC00C10712D5009700236179002201F00101A01D0CF02FF900281EBF60790028012878
:2024FC0003D0E868C0F3402028B1307C022807D1A87A010704D4A888032116F08BFE4FE0EF
:20251C006179A88805F1080227E02F7BAD88284616F0ECFE040042D016F0C8FE00283ED138
:20253C0000900023617901AA01F00101A01D0CF001F928BB9DF80400FEF799FD07F00C0790
:20255C00042F11D0082F0BD00C2F0FD100F0090109290BD0617900222846FFF747F81EE07A
:20257C0010F0090F02D1F5E7C107F3D501220092A37C9DF8041002462846FEF7DDFF0EE0F6
:20259C0070780028E6D10521284616F043FE06E0FFF7E8F818B1307804210BF087F8012789
:2025BC00384609B0BDE8F08F04200020D4AD01002DE9F04F0646C84DC34CB2782878A16846
:2025DC00ADF1240D002A00F1010000F08781C14B521F0FF2E42900F0BB80521E4DD0521E49
:2025FC001ED00A3A40F03A82B088B77BADF8080070898DF8127060B9ADF80E00B089ADF8E0
:20261C001000F188ADF80A103789ADF80C70012000E00020AD498DF8130002AA0D461BE1CB
:20263C00AB49B288102002AB06F082FD2D78A768F078AD1C30B90DF10A0011F0A7FD89A357
:20265C00009007E00DF10A0011F0A0FDB17800918AA30190E9B23846002214F0BCFB04F1DE
:20267C00300014F023FF041C00F0008220890AF0E9FE204613F0DCFDF8E11946102006F02C
:20269C0057FD5FFA80F82978A068002284A3491CC9B214F0A0FBCDF800802978A068002278
:2026BC004B46891CC9B214F096FBB088814615F02DFA08282CD0C60006EB00163619E4362B
:2026DC00B068071C0ED016F0B4F910B1384616F0A2F9384616F09AFD384613F0A9FD706818
:2026FC0013F0A6FD04F1300007684E4657B182463889864203D15046394614F026FD3F68E0
:20271C00002FF5D1304613F021FA30460FF0AEFDB8F1000F08D104F14C0016F07CF9CD4892
:20273C000221012214F0C4FC00260096CA4FA27810203346394606F0FBFC0096E27810204F
:20275C003346394606F0F4FC2878A168C01C87E11946102006F0ECFC5FFA80FBCDF800B0DC
:20277C002978A06800224B46891CC9B214F033FBB04698F80100002851D1B8F80AA004F16F
:20279C00E409082000264FF6FF72A9F1180737F8181F8A4204D0401E06F10106F7D127E042
:2027BC00A7F800A0032016F0E4F87860D0B1082101707868A0F801A0242016F0DAF8B86079
:2027DC0018B9786813F034FD0CE0F00000EB0610484441680091B249806841F27072012339
:2027FC0012F084F8F000012100EB0610484401752D78A66808F1040011F0C8FC6D1C00909C
:20281C0000229CA3E9B2304614F0E5FA91480121022214F04DFC04F14C0016F0FAF8BBF1F6
:20283C00080F12DA607880B9002600968A4DA27810203346294606F07BFC33460093E278D0
:20285C001020294606F074FC10E1964DE2781020294606F06DFCA2782946102006F068FC18
:20287C0004E1C0464C696E6B20506172616D20557064617465643A20257300C04C696E6B8B
:20289C0020506172616D20557064617465204661696C656420307825783A20257300C046C6
:2028BC0044657669636520446973636F6E6E65637465642100C046C04E756D20436F6E6EF4
:2028DC00733A20256400C046E00F0020D9570110F9DC0110DD53010080270020B14699F8CA
:2028FC000170002F40F0C280337A8DF80A30B2798DF80820F7798DF80970F37A8DF80F30C7
:20291C00727A8DF80D2000278DF80C70B37A8DF80B7002AA8DF80E30634B166852681E60D5
:20293C00C6B2084631465A6056A33A4614F053FAA01CDFF87CA1604E5C490090524610205F
:20295C0006F1400306F0F4FBC0B208B115F055FB4FF00B0806F11400CDF8008055490190EB
:20297C00A2783B46102006F0E3FBC0B208B115F044FB1C2006F15C0300904E490193A278C6
:20299C001020012306F0D4FBC0B208B115F035FBA2784A491020922306F0CAFB0097DFF8E7
:2029BC00B8B0A27810203B46594606F0C1FBC0B208B115F022FBE01C3C490090524606F18A
:2029DC007803102006F0B4FBC0B208B115F015FBCDF800801F3601963649E27810203B4690
:2029FC0006F0A6FBC0B208B115F007FBE27833491020922306F09CFB0097E27810205946EA
:202A1C003B4606F095FBC0B208B115F0F6FA2D78A66809F1060011F0B9FBAD1D1FA10091F0
:202A3C003A461BA30190E9B2304614F0D4F910F0BFFD234840F6B83201231949009004F177
:202A5C00700011F053FF1F4802213A4614F030FB0CE0C0461C310020ED740110421CD6B2A7
:202A7C00C2B208461146324615F0F8FD09B0BDE8F08FC046436F6E6E656374656420746F36
:202A9C0020257300496E697469616C697A656400257320416464723A20257300494400C07A
:202ABC00BD640100650202109F1A0020990101108D71010075C70000482200201DEF0110F9
:202ADC00862900201C3100202DE9FE4F04460020009000250CB914F0E5F804F1500841F6F2
:202AFC002300D8F8007038807D8002223A737A73694620460AF06EFF08B9072051E20099B4
:202B1C0001B1B860B8682061DFF89C04017884F8B810D8F80400407A12F01EFA2530207667
:202B3C00207EB873FD73D8F80400017D022904BF002014F0B7F8D8F80400007D012802D1E0
:202B5C000020002104E083280CBF0620022020213874797404F12406DFF850A4DAF83C00A4
:202B7C0041690868717901EB41010844B0F801207A82D8F80400417848060AD5607DC10698
:202B9C0004D5E07F40F04000E07702E040F04000607507F15C0904F1300089F80050B17E71
:202BBC00890001F0040189F80010B866607DC10656D5D8F8042051788A060CD500F0FE00E0
:202BDC006075D8F80400417811F0030F03D1E07F00F0FE00E077607D16F014FBA075421C87
:202BFC00387CC0F38001002392B200F0030016F005FBA0831E20A28B02F59B7393FBF0F070
:202C1C001E2101FB1030C0B208B1C0F11E00821802F59B7262831E20A28B02F5967293B2F1
:202C3C0093FBF0F001FB1030A283C0B208B1C0F11E008018A08380B2E27D618B521E504374
:202C5C004018608307F13005608BB43080003866062089F80300E17F41F00801E17720E067
:202C7C0040F001006075D8F804104A78510744BF40F002006075607D16F0C4FAA075002351
:202C9C00401C82B2387CC0F3800100F0030016F0B5FAA083A08B00F59670A0833D6689F868
:202CBC000350A17D207D61F3050007F18801207508700322607D48708A70B07E800000F0B1
:202CDC00040040F003008870F27ED20002F00802104388700020C870C7F89000B08BC0F38B
:202CFC000B00B083D8F80410CA7D40EA0230B0830022617D01F0FE01204609F0DDFF0197FD
:202D1C0000271EE01C2010FB07F004EB000B01991C220BF1640015F059FA0BF16C0005211C
:202D3C0001717F1CA28B92000260FFB2DAF83C104A691168737903EB43031944B1F8012007
:202D5C004281E07D401E8742DCDB019F20460DF0ABFFE07D012809D013D3032808D03EBF67
:202D7C0004F164007860C8F818500AE07D6008E004F16400786004F18001C8F81810C8F8E0
:202D9C00345041F6240038860021798607F13C05B868618B00EB8100B86302218220287031
:202DBC006970002194F82100E97000F03F00A870D8F80400807D012818BF022803D100F0F1
:202DDC007F00401E04E083280CBF062002202021287169714FF0000BDAF83C004169086832
:202DFC00727902EB42021044B0F80110E980C7F86CB0D8F80400417811F0030F20D016F0B4
:202E1C00F9F9F866DAF818000078C107DAF8181009784CBF1F200F208A07DAF8181009781C
:202E3C0048BF40F020004A07DAF81810097848BF40F040000A0748BF40F0800089F814007F
:202E5C0089F815B0D8F80410594A897C01F0030189F81510B07E800000F00400014389F882
:202E7C001510F07EC00000F00800014341F0100189F81510107838B199F8140000F0FE00BB
:202E9C0041F0400189F8140089F81510E07F16F0B9F984F82000204616F0A8F9E07FC10683
:202EBC0036D5D8F8040094F820204178521C88074EBFD21EF07F12182879C0F38001002307
:202EDC00D2B200F0030016F099F930801E22308800F59670C0F11E0190FBF2F21E2000FBAC
:202EFC0002113171D8F804104878810731884CBF00204FF49B70401830807080B86B3188CF
:202F1C0032795218A63200EB82007867022002E0C7F874B0002089F8170004F13000C7F8D9
:202F3C00800007F18400D8F804104A78510707D504F13802026099F8150040F0200007E031
:202F5C001C490A685168016099F8150000F0DF0089F81500A17F94F8200060F30501A1771C
:202F7C0040F60B002882A5F812B0DAF83800008880007865DAF83800008800B107202877F3
:202F9C000220687794F84510E983D8F804004178880744BF0121E983009808B109F03AFD99
:202FBC000020BDE8FE8F00BFDE36002088B30100880E00206C0F00202DE9FC47D44C0F4655
:202FDC000546F80B80F006826078DFF85883B90F80F0AA81B90880F09D81F90A80F002815D
:202FFC00390B80F0CC80380907D2F80FC0F0288227F080470FF004F922E215F0B2FC8146E2
:20301C0014F0A8FB002800F0B480082015F09EFB002840F0AE80802015F098FB002840F0C5
:20303C00A88068460CF0DEFD012803D10098002800F09F8094F84102002840F09A80002595
:20305C000126E8B215F0B8F848B1837A3BB1867290F9090006FA00F0C0B213F0EDF96D1C9E
:20307C00032DEED3032084F8200004F5CC7015F072FC484616F0B6F8D34800252A46016881
:20309C00056050F8081CD14940F8085C04F15C0014F070FA40460068006B8047A168401A4B
:2030BC00010BA06AC1F1FF3282422CBF08444FF0FF30A06294F82C0020B12069A16AB1EBD7
:2030DC00C02F25D914F056FB294600B13146081C1BD0BF4840F6090101804580417B06F0AD
:2030FC000F0221F00F010A434273017B05F00F0321F00F0143EA010202732946416015F022
:20311C00D7F9418811F4406FFBD084F82C60A56211F05CFCCE4829460560022014F0A8F863
:20313C00022013F07BFB11200AF03CFE207818B96068483015F057FCC648007810B90E20F5
:20315C000AF030FE94F82D0020B184F82D50052013F064FBC048606284F82050B4F9B0000E
:20317C00B4F9B210884214BF022007200DF0DEFD02E0484616F036F827F008073AE720B14A
:20319C00042013F04BFB00206070656812F020FF38B12846ED696FF4807100224FF00073F3
:2031BC00A847E06858B140460068006B8047E2686168801AC860000BC8600026E660A7492F
:2031DC0004F15C00002214F0D5F90221D4F89C0084F8201018B104F1DC0015F016FC27F48B
:2031FC00006707E715F0BDFB064614F0B3FAD4F894100028894600F08480002900F081802F
:20321C009749042504F15C00002284F8205014F0B1F9304615F0E6FF04F5CC7015F09BFB4C
:20323C0040460068006B8047E0604FF0010884F80180284613F00AFBD9F810006060D9F8E5
:20325C001000416AC90803D3036A29460022984740460FF021FF606880F8158060680BF0D6
:20327C00F7F86568D5F808A040F60A02D01F564600F1010C00E01E46736833B119888A42C6
:20329C0003D0884218BF8C45F5D100217160727B08F00F0322F00F0213437373D9F80C20C2
:2032BC001288904224D06046904221D02B8E03B3696305F13002518095F83C0001F00F0329
:2032DC0020F00F00034385F83C3095F83D0008F00F0320F00F00034385F83D307260707BA4
:2032FC0001F00F0520F00F0045EA0001717300E0E160504615F0DCF85146404613F0B8FF13
:20331C0002E0304615F06EFF27F4806798E0C0468815002006F022FED4F89C0008B927F034
:20333C0002078DE08C0100104E4A116841F08001116020B1042013F071FA0020607015F0D2
:20335C0010FB8246D8F85400016804208847D0B1287DC0B1A068B0B18146D8F800002E69D0
:20337C00006B8047A0EB09002861000B2861B04202D280194008286140F6C41181422CBF65
:20339C00B0F5967F2961504615F02CFF12F020FE80B1EE6928466FF4807100224FF00073C9
:2033BC00B047D4F89400002808BF47F0020701D00EF026FF2846AD6900214FF080630A4660
:2033DC00A84727F000573BE01410044071350100C835002015F0C5FAD4F8AC6066B306F181
:2033FC00280106C90A234FF0E0450B40154008BF002B21D106F1280191E8000306F12805E4
:20341C0095E8060006F1280322EA090221EA080183E8060015F0E6FEB16879B1B9F1000F6A
:20343C0008BFB8F1000F09D03069B6F93010B5684B464246A84701E015F0D4FE27F48047D1
:20345C0027B104F1DC00394615F0DFFABDE8FC87000004600AB2010085C60000C1BA00003B
:20347C0051770100CC2108402DE9F84FDFF85854A9780024FF2904BF002013F013FCA878D0
:20349C0014F04AFE054605F1680605F5C9773168086805F1900808B1EC8311E0B07B0028D8
:2034BC0004BFB07E00280BD198F80010002904BF3878002804D1287F012804BF688CE883D0
:2034DC002989E88B4118491C6981284615F086FE01281EBFDFF8F4030178012903D129890F
:2034FC00EC83491C69814FF6FF79B07E01280DD1B28B6989288915F06DFE38B12989688924
:20351C004A1C93B298422FD0B08B23E098F8000001280FD1B8F802206989288915F05AFE62
:20353C0040B1298968894A1C93B298421CD0B8F802000FE03878012816D17A886989288964
:20355C0015F048FE80B1298968894A1C93B298420AD0788892B2904206D04844688180B23E
:20357C0015F034FE4844E883387801280FD128897988401C80B2884209DB7C793C71022096
:20359C0038702346A9792246002009F0C3FF05F59A71087920B128890021401CE9836881BF
:2035BC00B07E012813D12989B08B4B1C9BB298420DD1688115F00AFE804605F12E00818872
:2035DC00308C01FB080828460DF036FE03E005F12E01B1F80480EA8BDFF8F492501C00FBFA
:2035FC0008F040F6C41808FB00F100912B68D3F80CE07144D960B74B196809788909032926
:20361C0040F0168199F80F30B349DB0740F10081B5F812C000230CFB00FC4FF4C87EBCFB82
:20363C00FEFC0CF1010C0B80A861C5F814C085F820204FF01C0BDFF8A4A2AB79DAF800000F
:20365C0000F108021BFB03F3D1582A68116100F10801AB79D26868691BFB03F3121ACA509F
:20367C00DAF80000AB7900F108021BFB03F3D1582A68916000F10C02A9791BFB01F10C3020
:20369C00535C03F0F00343F002034354DAF80010AB798A1C1BFB03F30021D152387908B93C
:2036BC0013F000FBDAF80000AA7900F1100138791BFB02F240088854A879DAF800101BFB01
:2036DC0000F00844002141743879042814D1A879DAF800101BFB00F001F110021031135C3D
:2036FC003A7A43EA82030B54AA79DAF800001BFB02F2024420205074DAF80010A87901F1AB
:20371C0012021BFB00F0002111527549A8790A6802F114034FEA401C143253F80C00AB793E
:20373C00D5F814C05B0100EB4C00D050B07E02280DD10A68AE7902F1140376011432985992
:20375C00AB7995F82E605B0118FB0600D05005F12E0299F80F00C30773D5DAF80000AE79A8
:20377C0000F108041BFB06F60830A359AC791BFB04F4A3F5A8630351DAF80000AE7900F1D6
:20379C0008041BFB06F6A3592C68A36000981B1A23610868AE7900F1140476011430A359B4
:2037BC00AC79640103F5F6630351387904280BD10868AE7900F1140476011430A359AC7989
:2037DC00640103F5616303510868AC7900F1140364011859C5F83401424B186B0C68AE7948
:2037FC009288006804EB461742436424B2FBF4F408FB04F0A0F59660F8613B480278012A3A
:20381C0048D10868A97900EB41120120D07248E00B885B1C1FFA83FCBCF1010F11BFB5F83C
:20383C0012C005F59A7EBEF806C00CF2DC5CF2E6698A41434FF4C873B1FBF3FC0CF1010C64
:20385C00F2E6042C0BD10868AE7900F1140476011430A359AC79640103F5616303513879C6
:20387C000B68AE7904280CBF4FF4AA504FF4E66003F114047601A359181A938808FB03F310
:20389C00A3F516739842A7D30821284613F048FB012016E0586A0968AA79407801EB421354
:2038BC00D872A879DAF800102A681BFB00FB01EB0B00506007210D48017028460EF03EFAC3
:2038DC000020BDE8F28F00BF780E0020D10F0020980C00203C0F0020D0360020980E002006
:2038FC009C0E002088B30100CC0F0020C80F00202DE9FE4F0546DFF82404DFF8246402782E
:20391C00002A4CD0052A73D0062A00F08080072A18BF082A00F0F7800A2A00F0D381112A5F
:20393C0002D0132A70D0F1E1DFF8F8331878002115F0B8FC04001EBF606D407810F00C0F5D
:20395C002DD0216DC0064CBF886CC86E0622016801F10805A91C684614F038FC287800F0FA
:20397C000F0105291BD145096946C0F3801015F029FC002813D03168684615F01FFC0746D8
:20399C00316804F1380015F019FC87420DD0606D4178C80604D440F2014015F00BFCBBE13E
:2039BC00607B40F002006073B6E133681E2010FB07F6981906226946C01D14F007FC606D5A
:2039DC004178C806F0D5A17B0129EDD1DFF858038178480605D5E90703D4206D41F20A4156
:2039FC0002E0206D41F2044141804183418693E114F0E9FF0028FAD10EF068F9012802D0CB
:203A1C00012015F0D3FB87E10EF047F884E1DFF81C53286815F0C6FB0400F7D02079032861
:203A3C00F4D1207A00F00F01072937D1C04800684169497A4A1E11425ED0617A04F10A0330
:203A5C005A5C02F03F02252A56DBA17A8A09012A52D111F03F0F4FD0007C14F05DFBE17A44
:203A7C00CA074CBF04F1110204F10B028B0748BF921D0B0748BF921CC90648BFD21C16213A
:203A9C00127852094A43AB498B180A31EB608A5A428699898186DA89C2862DE000F00F00EF
:203ABC00082829D1A17A880926D129B3A0480168087C14F031FBE17A074688071CD50622EC
:203ADC0001F001015143601800F10C01684614F07DFB207AC009FF280ED0694615F072FB1A
:203AFC0050B1306800F10D01684615F057FB18B90521384613F014FA2079032802D00020D1
:203B1C0013F0D0F8FEE0DFF830B29BF802000024FF281BD014F000FB804608F16C09D9F858
:203B3C00040015F03FFB2A460179032901D011000CD08368197801F003008D06009003D5E7
:203B5C000124009818B9BAE01000FAD0E4E05D7803F1020A34B31AF8010B784B01902C2009
:203B7C0098F806C01F6810FB0CFC67444FF0010E87F805E0002A1F6898F806E007F11A0C97
:203B9C00019F10FB0EFE07F01F070CF80E7098F806701B6810FB07F01844019BC3F38113E6
:203BBC00C3761AD10098032808F217171AD0ADB199F8000068B108F1F4000278012A0DD178
:203BDC00564B1A78072A04D0082A04BFC078012804D13D217970012038709DE0584A1378AC
:203BFC00012BFAD098F8940070B32D1FEDB253462A4640460DF022FA00281EBF51490878BA
:203C1C00002807D13D21797001203870306815F0C1FA81E04C4801688847064698F8061001
:203C3C00DBF804204FF4D07041435018002280F8412108F59E700168807949080DF0E4FC6B
:203C5C0042490A68304690470098032819D04048416909788A0708D541690878C1074CBF34
:203C7C00E81C28461AF8000000E0812089F808002A460098C3B29BF80200514605F04CFDB3
:203C9C001DE09AF800001CB11B2804BF022D01251C2803D22F490B5C9D4205D0B870072155
:203CBC00404615F0E3FA0AE01C48017808295146404602D114F051FE01E000F079FAD9F830
:203CDC00040020E0244C207830B3244D286815F069FA08B3017903291ED1017A8A0611D52F
:203CFC00807AE178C0F38112914202BF217900F01F00814206D1A078002801BF6078002838
:203D1C000121A170286815F041FA05E0002012F0C9FF862015F0C2FABDE8F78FC80F00202C
:203D3C00680F0020D50F0020C00C0020BC0A0020540F0020E0070020780E0020583600201C
:203D5C00D20F0020E3360020B0210020B421002088B3010020B4010000360020AC0C0020E8
:203D7C002DE9F04F0F46380589B018D5DFF8EC532888FF280ED0C0B214F0CEF9040009D035
:203D9C00A079162115F0FEF9204614F0BBF9204615F0F4F9FF20288087F40060DAE1F805EB
:203DBC0008D5022014F00BFE08B10CF046FC87F48070CFE1B80604D511F0D5FF87F02000C6
:203DDC00C8E1F8070CD514F05BFB30B100218160DFF88C03006800B1804787F00100B9E1A9
:203DFC00380704D512F097FE87F00800B2E1F8060FD5002100220023069105920491039345
:203E1C00029101920091022015F0B4F987F01000A0E1B8070FD5002100230691059104914A
:203E3C00039302910191009101223C2015F0A2F987F002008EE179074FF01E08C94EDFF840
:203E5C0028A340F1CD80C9480022002108920791007815F027FA0446C5488178FF2904BF9E
:203E7C00002012F01FFFA07A14F056F905469AF8000095F82E91002805F5947B69D0606D19
:203E9C00807A022818BF032807D130680D3015F06DF910B93068C11D07915946484615F0BF
:203EBC0091F9A0B3606D807C3368002818BF012804D11946584615F081F904E05A46494619
:203EDC00184615F017FAFF2843D018FB00F83068404406225946C01D14F078F9306810F838
:203EFC000810404400F1010BC01D41F0020908900622616DC87A00F0010085F82E01606DBA
:203F1C0000F10C0105F5947014F060F921E05946484615F027F9E0B130685A46494615F07C
:203F3C00E9F9FF2815D018FB00F8306840440D3015F01CF958B9306840440D3015F016F97B
:203F5C00002801BF30684044417F012901D149F0020905F12C004B46017806914289120998
:203F7C0005920122698C0491C0880899029140080390CDF800B0079801900020A97915F09E
:203F9C00F9F8D5F89C017B498842A8790CBF0021012115F0E3F87848AB7902682C214B43E4
:203FBC00134401221A73AB7904684B4323445A73AB7904684B4323449A73AB7904684B43DC
:203FDC002344DA73AB79006811FB03F10144002008740720A9790BF034FF87F00400B9E019
:203FFC0038060FD500210023069105910491039302910191009101223B2015F0BBF887F084
:20401C008000A7E0F8045DD55C4930680C680D3015F0ACF8002844D13068C11D0D3015F0C3
:20403C0099F83EE0606D4178480704F13E0526D5287802281EBF03286878012830D16978F0
:20405C00306804F1380215F055F98146B9F1FF0F15D0306818FB09F948440D3015F086F8CD
:20407C0068B930684844C11D0D3015F073F830684844C11D062204F1380014F0A7F82878BA
:20409C00022818BF03280BD130680D3015F06EF830B93068C11D062204F1300014F096F87E
:2040BC002468002CBED13648DAF8042000784FF4805111F03FF810B18E2015F047F887F437
:2040DC00805047E0B80505D514F0E0FA2D4901200860FEE7780504D514F0B3FC87F4806010
:2040FC0038E0780405D5812015F030F887F4804030E0B9042DD5244C206810B1002012F083
:20411C00D1FD4FF0FF3020600020204C0DF040FA216851F8202F684690471D494A6B086BD0
:20413C00C96A24681B4B019200900293ADF810106B46194A19491A4803921A4A07922568CA
:20415C00194AA8471949086004F0A8F887F4005000E0002009B0BDE8F08F00BFFE270020E7
:20417C00480F0020680F0020880E0020D70F0020780E00204DE50110583600204C0F002047
:20419C00C70F00207C052043380F0020200F0020DC2200207D8401008D84010010280020E9
:2041BC00280800201EFB0080EC0A00201C0F00202DE9F043044685B0084611F801CBDFF8D7
:2041DC00A483DFF8A4332C22BCF1030F4FF0000904F5A47704F1660504F1F40600F0C38003
:2041FC00BCF1070F00F08081BCF10F0F0CD0BCF1110F00F02481BCF11A0F00F03681BCF1BC
:20421C001B0F00F061818EE1707A820703D40F2184F8191159E008784A7800EB02233B80B1
:20423C008878CA7800EB02237B8008794A7900EB0223BB808879CA7900EB0223FB80087A35
:20425C0038724A7A887A02EB00237B81C87A0A7B00EB0223BB81487B8A7B00EB0223FB815F
:20427C00C87B0A7C00EB02233B82487C8A7C00EB02237B82C87C0A7D00EB0223BB82487DD8
:20429C00897D00EB0122B948FA8201788A0658BF4FF01A0913D504F5AA70049079890391CA
:2042BC00387A029021890191F8880090BB887A883988204614F046FFC8B14FF01E09707AD4
:2042DC00410706D40F2084F81901204614F036FFF0E04A460F21204614F02CFFF888009007
:2042FC00BB887A88A17948460FF0D6FDE9E004F1860079888180BA88C2800222F9880181F2
:20431C000270A0F80290A18EC91DE983628E8188B1EB520F02BFC188A28E914202BF008917
:20433C00E18EB0EB111F1CD0287C012804BF687C0F2809D0687D00281CBF687C1A2803D0D6
:20435C000F21A976FE2176E0FC21204614F08EFFF8880090BB887A883988A07914F0E6FE52
:20437C00AFE0102167E0707AC20709D431781A200129707002D1FF220D213BE00D215AE0F8
:20439C0085F8009085F8069001233371082204F1B00014F0C7FE0146022204F1B80014F065
:2043BC00C1FE04F1A80801460822404614F0BAFE07460821404614F0B1FE04F19C0804225C
:2043DC003946404614F0AEFE0421404614F0A6FE04F1A00014F09EFE04F1980014F096FE5F
:2043FC006348018841F0800101803078012805D1FF220421204614F085FE62E06E7C0F2EF7
:20441C0018BF142E04D00E2E1CBF0C2E1A2E11D12F7C204614F072FE0421204614F026FFDF
:20443C00012F05D11A2EAE7614BFFD21FB2102E0314600E00421204614F018FF41E00E785B
:20445C003E761A2E497879766DD11868A679411C564301F806901968A37912FB03F20A4445
:20447C0082F80490A179787E56E0A77918680E785743074406F01F0117F8210FB60938B1C4
:20449C007878F040C00703D594F89601042805D120221A21204614F04DFE12E0F970A17975
:2044BC00186812FB01F28118204681F82360002114F08BFA28B998F800004FF4804109F04D
:2044DC00F5F84FF0010932E0A179186851430144C88808B981F80190A179186812FB01F250
:2044FC00811881F80490ECE709780F2917D01A2919D1A1791868514301441A2081F80190A3
:20451C00A1791B6812FB01F2991881F80490F17A01F0FB01F172A1790CF0A6F9D1E7717A11
:20453C0001F0FD0171720146204614F0E3FD687C1A2812D1A87C17281CBF1028FC280CD17C
:20455C002E7C204614F0DAFD012E03BF1A20A876FB211A21204614F089FE484605B0BDE8DB
:20457C00F08300BFC70F002058360020200E00209C0F00202DE9F84F0422FF21684613F0DC
:20459C002FFEDFF88C63B0780024FF2800F0BE8113F0C2FD0546B07813F04AFF064605F2A6
:2045BC0017100178012908BF417800F0008105F1740005F5927A817B022904BF05F174015F
:2045DC008C7395F89201022805F1740008BF85F89241017F022904BF05F174010C77BAF8E7
:2045FC000E1019B19AF80C0009F060F86889C94F288105F58D7BBA7AF879397B80184118CA
:20461C00F87A0818797B00EB0109BBF80400BBF80010401CABF804004944BBF80200ABF8A1
:20463C0000101018ABF80200DAF80000F0B1BA4995F806E00B681C2103F10E0C11FB0EFEC2
:20465C000E331CF80E1030F811C0CC4420F811C01C2195F806C011FB0CFC13F80C3000EB03
:20467C004300B0F84A105218A0F84A2012F0A6F8F879002804BFF87A002805D1387B002826
:20469C0004BF787B002840D0F481A046F07EC00910D0307F00F00701022907DA00F0F80201
:2046BC00401C00F007001043307703E0A879002110F088FA2989E8892C744118287FA981FD
:2046DC00012804BF688CE883A979012207200BF0B8FB787805F1740658B101212977B07806
:2046FC00002804BFB07B002803D1307F08B9688CE8839AF81400002862D0022804BFF87A5E
:20471C00002858D18AF814405AE0A979002207200BF097FBEC83317F11F0070F02D1F07EAD
:20473C00C00903D0A879002110F04CFAB87A38B1287F01284FF0010827D1688CE88324E0AB
:20475C00BBF80600401CABF806004FF00208287CD8B172490868AB7995F82E6000F1140298
:20477C0068694FEA400C40F6C4105B0110FB06CC0CF5F660D0500968A87901EB4010C17C02
:20479C0001F0F00141F00401C174A8892989814206D088429DD2081A41F2AB02904298DAB5
:2047BC00287C08B1052901D0082100E03E21284612F0B6FBAAE0787A10B102218AF81410F2
:2047DC00F87BC1070DD538692968C86000F59070C86052480168A87901F114024001145058
:2047FC0014E04E48AB79026802F114015B01C858CAF810004848AB7901681C2001F10802DA
:20481C004343D0582968C860EC832C77444A50690078810702D5B87B802800D181203070F8
:20483C00404991F8200018B12946012014F0C3F8284609F0C7FE02281BD1F079022805DB5D
:20485C006A46394928460EF097FB0446284614F04DFC01285AD020000DD022466946284632
:20487C000FF010F838B9284609F0ACFE012802D14CE001284AD00121284614F033FCFEF7F0
:20489C00F3FD012842D028460DF04DFC00F0F8FB264F3868002839D0B888AA7990421CBFE4
:2048BC004FF6FD71884231D12148007B13F028FE04002BD084F80080A8791E4960800A687B
:2048DC00A879115C217105F5C9721079607196F90010A171A4F80890BBF80200608113F08F
:2048FC00CFFD050005D1FF204FF0FF312073216109E02878207314F0F1FB0146A86814F0EB
:20491C00E9FB80082061204639688847BDE8F18F780E0020980C0020980E00209C0E002099
:20493C0088B30100E033002054290020800E002020280020703600202DE9F84FDFF89403A8
:20495C000278112A03D0122A00F0BE81C0E1DFF888331878002114F0A5FC05000AD10020BF
:20497C0012F0A0F9002012F09DF9BDE8F24FFF2014F094BC05F14C0A9AF8000008B90121AE
:20499C00E972401CDAF808108AF800004A78D106DCD4E97DDAF80470C2B28A424FF000085C
:2049BC00D4D305F1280407F1900907F17306C34640F08C80A87F7075E97FB175DAF8082037
:2049DC005278930710D5EA7FD30604D5C01E707501F0EF01B175C7F874B086F8008000228A
:2049FC00B17D01F0FE016AE1910608D4E08B00B1E07E3076E08B00B1206AC9F80000DAF866
:204A1C0008004178CA070DD5E08B00281CBF206A002807D0C9F80000A17EE08B814238BF0A
:204A3C0008463076E87FC1060CD5B86B217800EB8100B863B86BA98CA63100EB810078679A
:204A5C00022002E0C7F874B000203070DAF80800417811F0030F22D1007813F0B2FF5FEA85
:204A7C0000081CD098F8B000032809D1E87F810615D440F02000E877B07D40F020000DE0F1
:204A9C0068B9E87F81060AD500F0DF00E877707DA0F112017175B07D00F0DF00B075E97FDE
:204ABC00002201F0FC01284608F006F9B8F1000F36D0E87F810633D598F8B00002282FD147
:204ADC0041462846BDE8F44F13F083BFE87F81060AD500F0DF00E877707DA0F11201717526
:204AFC00B07D00F0DF00B075DAF808004178C80717D5B07D717D00F0F700891E01F03F0151
:204B1C0082075CBF891D40F00200420644BF491E00F0BF00B0757175C9F800B086F818800A
:204B3C00D6E09AF80020E87D121AD2B28907009240F18280012A07F140083FD1B86BA98CB4
:204B5C0000EB8100B863A87F00F03F00A8777075E97FB175DAF8082053785A0703D5801F2D
:204B7C00707501F0FD01B1750023707DE17E00F03F00421898F80000521CC0F3800192B2B1
:204B9C0000F0030014F03AFB00F59B70A8841E21A88C90FBF1F18AB2B17D01F0FE012846F9
:204BBC0008F08AF886F800B0E08B00B1E07E3076E08B00B1206AC9F8000089E0B86BA98CE9
:204BDC00022A00EB8100B86326D1E87FC10706D5707D811F7175B07D00F0FE00B07500232F
:204BFC00707DE17E00F03F00421898F80000521CC0F3800192B200F0030014F0FFFA00F569
:204C1C009B70A8840022B17D01F0FE01284608F053F8607FA8F81A00617F0098491C081AB8
:204C3C00C0B201281CDDB96BAA8CA63201EB820179670221317014E0B86BA98C00EB8100C7
:204C5C00B863617F0098081AE97FCA06C0B207D5B96BAA8CA63201EB8201796702213170B8
:204C7C00B0B395F81F80A97FD9F80020E37E1A44C9F8002028F00108DAF808205278530791
:204C9C0048BF28F00208920748BF28F00808012807D1207F3076C7F874B028F0100886F830
:204CBC0000B001F0C004404614F0ACFA00F03F002043707586F81680002208F0FC01284633
:204CDC00BDE8F84F07F0F8BFBDE8F14F0EF0BDBFBDE8F18FC80F0020D50F00202DE9F04158
:204CFC00FF2806462AD113F007FD10F01F0F22D0042011F019F908B1042016E0012011F0D7
:204D1C0013F908B1012010E0022011F00DF908B102200AE0102011F007F908B1102004E0B5
:204D3C00082011F001F920B10820BDE8F04111F069BB11F0B7FF0020BDE8F08111F062FBF5
:204D5C008046012ED8F8044046F2A81740F6C4100BD0022E5DD0042E00F0AB80082E00F082
:204D7C00F380102E00F04281E5E7DFF8000301688F88102011F0D8F8E8B1102011F042FB85
:204D9C0005466E6846B9022011F0CEF820B1022011F038FB05466E68012011F0C5F840B1D6
:204DBC00B068A0EB8701A06812F064FC08B94046C2E72846C0E7022011F0B6F890B1022009
:204DDC0011F020FB06460120756811F0ADF838B1A868A0EB8701A06812F04CFC0028E6D06F
:204DFC003046A9E7042011F09FF808B10420E7E7082011F099F830B1082011F003FB4168BF
:204E1C00002999D1D3E7012011F08EF8002893D0CDE797490A689749D3690A7802EB8202E1
:204E3C009E18F7884743042011F07EF807F5166788B1042011F0E6FA06460220756811F0F9
:204E5C0073F80028CCD0A868C11BA06812F012FC0028C5D1ABE7082011F066F8D8B108207B
:204E7C0011F0D0FA05466E6846B9012011F05CF820B1012011F0C6FA05466E68022011F0BE
:204E9C0053F8002895D0B068C11BA06812F0F2FB00288ED18BE7012011F046F808B1012000
:204EBC00C8E7102011F040F808B11020A5E70220AAE771490A68714953690A7803EB02166C
:204EDC00B7894743082011F02FF807F5166780B1082011F097FA05466E6846B9012011F0F6
:204EFC0023F820B1012011F08DFA05466E680420C5E7012011F018F828B1012011F082FA67
:204F1C00064604209AE7102011F00EF880B1102011F078FA05466E6846B9022011F004F83A
:204F3C0020B1022011F06EFA05466E680420A6E7022010F0F9FF28B1022011F063FA064668
:204F5C0004207BE704205FE713F037FD08B1D0F89070042010F0E8FF58B1042011F052FA08
:204F7C0006460820756810F0DFFF002818BF002C68E7012010F0D8FF60B1012011F042FA05
:204F9C000646082010F0D0FF002818BF002C3FF427AF0CE7102010F0C7FFA8B1102011F00B
:204FBC0031FA05466E6846B9022010F0BDFF20B1022011F027FA05466E68082010F0B4FF9B
:204FDC00002818BF002C5DE7022010F0ADFF58B1022011F017FA06460820756810F0A4FF47
:204FFC00002818BF002C2DE708200DE7032013F0E6FC08B1D0F89870022010F095FF50B1F2
:20501C00022011F0FFF90646102010F08DFF002818BF002CBBE7042010F086FF28B10420DE
:20503C0011F0F0F90646102008E7082010F07CFF80B1082011F0E6F905466E6846B90120E2
:20505C0010F072FF20B1012011F0DCF905466E68102014E7012010F067FF28B1012011F02D
:20507C00D1F906461020E9E61020CDE66C360020500F0020D80F0020540F0020D90F002049
:20509C002DE9FE4FDFF818536F681FB9BDE8F74F14F01CB83878DFF80CB3C34EDFF80C8320
:2050BC00012818BF02280AD004281CBF0828102805D0402818BF802800F0A78069E113F041
:2050DC0021FB0028FAD0012010F02EFF20B1012011F098F910F0D4FE082010F025FF20B1E5
:2050FC00082011F08FF910F0CBFE3878FFF7F6FD814698F80100D9F80440002850D004F0D8
:20511C0081FE13F009F88246DAF80000009047689AF8060088F80300BCB10099484606F072
:20513C00C5FE022811D099F80010012902D0082965D02EE128B913F0D1FF00F5E8504C3016
:20515C00A0600120A87011215CE00098017880290BD10820964930700A787869012A1ABFE8
:20517C00DBF824100978012114E0072030709AF8060013F05DF90446207BC10748BF9AF877
:20519C00060067D48A480178786901291CBFDBF824104978C1729AF8060088F80200BFE0CD
:2051BC00B9F1000F11D099F800004F4509D1012818BF082801D134BBF0E0002011F072FDE9
:2051DC0021E0012802D0082817D0E2E0002CF3D013F084FF0146A06801F5C241A83112F046
:2051FC0049FA28B913F07AFF00F5E8504C30A060112030700121A97005E0002CDCD0082059
:20521C00A870122131704846BFE098F80100002800F0888004F0F6FD12F07EFF8146D9F8AA
:20523C0000000090D0F804A098F8020012F074FF019099F8060088F803003978402913D1A6
:20525C0099F8060013F0F4F80446207BC1070BD599F8060012F060FF052111F061FE207B06
:20527C0000F0FE00207399E013F046FA10F01F0F32D0012010F058FE20B1012011F0C2F881
:20529C0010F0FEFD082010F04FFE20B1082011F0B9F810F0F5FDA878FFF720FD07467C6881
:2052BC00D4B1009906F002FE022815D03978012902D008290BD00CE028B913F00FFF00F523
:2052DC00E8504C30A06011203070012156E0082057E0002011F0E6FC0198484520D00099C4
:2052FC0033480A78802A0BD10821317000780128DAF814001ABFDBF82410097801210AE051
:20531C000722327000780128DAF814000EBF0121DBF824104978C17299F8060088F802001C
:20533C00009832E013F0E8F910F01F0F36D0012010F0FAFD20B1012011F064F810F0A0FD8B
:20535C00082010F0F1FD20B1082011F05BF810F097FDA878FFF7C2FC074638787C6801285C
:20537C0002D008280CD019E0C4B113F0B7FE00F5E8504C30A060012111203070A97003E075
:20539C0064B1A870122131703846BDE8FE4F06F0FFBFBDE8FE4F002011F084BCBDE8F78F4E
:2053BC001836002088B30100C80F0020780E0020CC0F00202DE9F84F05004ED0DFF8E482D2
:2053DC0098F80000092818BF0A2804D00B281CBF0C280D2801D1212062E1A878002113F002
:2053FC0061FF040008BF4220F6D0AF4FA978DFF8BCA2397098F8000010B9A8788AF8000046
:20541C0004F14806F068417801F01201022902BF706900280C2012D0607AF0B1A07B01285E
:20543C0004D1B5F8030008B1812816DA6878402813DA204613F046FEB06808B907202FE187
:20545C00B561287801281FD1A07B00281CBF0128042819D19648007808B9122020E19549DC
:20547C004A78824208BF0920F8D0F068417848070AD504F1220180204A7F04F1380105F0EF
:20549C0031FE08B10B200BE1687808B9112007E12878DFF82492DFF824B2012840F0AF80D5
:2054BC0000212173F166217A012903D1B16968794871F4E0012000212072E172617325463D
:2054DC0008F068FF6060DBF8000080477C4A0146106802E06A68426000680028FAD1084673
:2054FC00D9F8001088476968764848610021387813F059FA3978012211200AF0A2FCF0688C
:20551C004178C80605D5284600F0E2FF010024D0C6E0688C0EF014FD85F82100F0680078C3
:20553C0013F04FFA04001CBF94F8B000002807D0E87F40F02000E877687D40F018006875C9
:20555C002846FDF7C1FA0100E2D134B194F8B000012804BF284613F03AFAF0684178C807CC
:20557C001CD505F14204A18800291CBF3068002814D022788A4211D20F2013F09FFD68B1E1
:20559C00F06801788DF800100F20A288ADF8012021788DF80310694613F08CFD98F800006E
:2055BC00A0B94949087800281EBFF068417811F0030F03D04548006813F078FD112088F84A
:2055DC00000001212972FFF75BFD68E0284610F0E5FE00281CBFB168002960D0AA7B012A46
:2055FC0004D02A69808802EB800202E0486E2A69821895F8B810104609F00AFB4FE0207A7A
:20561C0000284CD0DBF80010884705463878012113F0C9F900202E4920720A683E781146EE
:20563C000B68187A002802BF586D0378B3421FD0C9689142F4D138789AF80010884224D162
:20565C0012F01EFF616888421FD111F0B7F840F2014013F0AFFD1F491F4A204808600121F7
:20567C00107808F023F8D9F800102846884716E01B4E30780128DEDD084610F0E5FB12F03A
:20569C0037FF3078411E3170D5E7204613F00AFDD9F8001028468847204610F0C1F9002086
:2056BC00BDE8F28FC80F0020D60F0020D50F0020D40F0020780E0020B4210020B021002019
:2056DC004C0F00204D860000880E00206C0F00206C360020480F0020C70F0020215A000065
:2056FC00E03600202DE9F043A24CA349A34E20700A22002008600D23A14840F22221027000
:20571C004380818085B09F4A9F48106037789F480770FF2F7178417008BFFF29B278827054
:20573C00F378C370357905717679467114D1FF2A08BFFF2B10D1FF2D08BFFF2E0CD194492B
:20575C000A7802704B7843708A788270CB78C3700A790271497941718E4902788E4D8F4EE6
:20577C008F4F0A7043784B7082788A70C378CB7002790A7140798B4A4871FF202870687009
:20579C00A870E87028716871002087490880F06B8649407808708649F06B00780870138884
:2057BC00844885490380F06BC06C08608349F06B90F83C0008708249F06B90F83D000870FB
:2057DC008049F06B90F860000870F06B406901797D484A1E0270F06B7C49C0783870F06BB1
:2057FC008069086008B911F05DFAF06B7849C069086008B911F056FAF06B416D75480C2270
:20581C0012F0E4FC13F04AFCF06B7349006A086008B911F047FAF06BDFF8C081406AC8F878
:20583C00000008B911F03EFAF06B6D49806A086008B911F037FAF06B6A49C06D002840D089
:20585C0001220A75F06BC06D02681378C3F3400048B1F06BC06D02681378C3F3C000002803
:20587C000CBF01200220487500208860C8600861F06BC06D426890780870F06BC06D4268C4
:20589C00D0784870F06BC06D426813788B70F06BC06D42685078C870F06BC06D4268107947
:2058BC000871F06BC06D426850794871F06BC06D426890798871F06BC06D4268D079C871B7
:2058DC0001E000220A7501F099F907280AD105F099FC20784FF4804107F0E8FE002011F079
:2058FC00E1F943E040480168884781460CF0CEFAD8F8000001688847684612F08FFCD8F831
:20591C00002004208DF80000694652F8043F00209847364908600EF07FFDF068344A0188A7
:20593C003878344B014311804846196888470C21314813F052F8284613F0ACFB13F0A6FBBA
:20595C002E4800214FF6FF7201608280F06B90F858102B48006812F063FD0121FF2013F0AF
:20597C0022F820784FF4005107F0A0FE05B0BDE8F08300BFC70F0020380F0020D04F0050D8
:20599C00700E00203C0F0020B63F0050400E0020E8120050500E0020480E002088B30100B5
:2059BC00C40F0020922800209E0F0020C60F0020D40F0020CE36002060360020E136002028
:2059DC00E2360020DF360020CB0F0020200F0020240F00200C360020280F00202C0F00208E
:2059FC00300F002068350020B021002064360020A00F0020B4210020FC0D0020800E002029
:205A1C00783600202DE9F84FDFF8A09299F80000002113F047FC040004F1500602D111F01B
:205A3C0041F933E1207A08B9002140E0217B491C21733069407920B1C9B2814208BF43213F
:205A5C0035D004F14508002088F8070012F0F7FE7168D1F80320D4F810C022F07F4240F6DB
:205A7C00C41303FB02CC4FF00B0E90FBFEFE0B2202FB1E00376880B24FF47A6148431CFAB0
:205A9C0080F0B86033688A489968216133690268B3F8030000281FBF706E0028A37B012B68
:205ABC000CD0938801EB8301814207D33C2120460FF074FABDE8F14FFFF7E2BA7D4D2878B5
:205ADC00022809DBD068016810680969006911F0D1FD08B10CF0D6FD70684178CA0604F1FB
:205AFC0022071BD5A07B01280CD100212172287810B1204613F0D6FA6F480078022107F0B9
:205B1C00D5FDAEE0306890F8631001F0E00141F0860180F8631069494166A2E0356805F193
:205B3C00020A0021AAF8001005F1730B407A0FF013FA25302076207E8AF80C0020460BF0B8
:205B5C00B3F8207D8BF815000020617D8BF816108BF81800C5F890003888401C388080B2B4
:205B7C000EF0EEF984F821007068417811F0030F42D1007812F025FF00283DD000F1B0015B
:205B9C000878032806D1E27F930603D442F02002E27731E001280ED1E07F40F02000E077CA
:205BBC00607D40F0180060752046FCF78DFF204612F00DFF20E008B10879E8B1E07F00F054
:205BDC00DF00E077B068002804BFF068002810D17068007D83280CD0617D03280A4607D003
:205BFC00C80648BF01F0EF02100748BF02F0F70262752046FCF768FF617D002201F0FE0142
:205C1C00204607F059F80020AAF8300005F13E0094F8211001F03F010170A968628B01EB4B
:205C3C008201A9630021018298F80020828371684A78910709D5BA887A80A17F01F03F01C2
:205C5C0041F08001A17701218183E07FC10608D5A86B7988A63100EB8100686702218BF869
:205C7C000010174A107888B1387F022818BF03280CD1144F38680D3013F078FA30B93868D8
:205C9C00C11D062204F1300012F0A0FAFFF7F8F94CB17068017E480605D54946BDE8F44F47
:205CBC00032013F007BABDE8F18F00BFD50F00206C360020E0360020C70F002000204E009D
:205CDC00880E0020680F00202DE9FE4F01200190A24EA348A34F0278112A02D0122A0DD0D9
:205CFC0036E1A14C2078002113F0DCFA9F490546087810B100220A70F2E0002D00F01B8157
:205D1C009B48DFF87082DFF8709238600122217811200AF096F8286D696D009141F6080298
:205D3C00009B96495C78E30640F1DC80044641F20443B4F802C09C451FBFB4F81AE09E4509
:205D5C00B4F832C09C454FF4A05A1CD095F80EC0BCF1010F04BFB5F89EE09E4513D0B4F807
:205D7C0002E041F20A439E451FBFB4F81AB09B45B4F832E09E4506D0BCF1010F04BFB5F8EA
:205D9C009EC09C4503D13380C7F800803DE0002340F2FE3B4FF0180C0CFB03FCA444BCF832
:205DBC0002E0A6F800E0BEF1010FF3D0BEF1000F55D0AEF1020EBEF1010F50D9BEEB0B0EA9
:205DDC001AD04FF48063BEEB030359D04FF4406BB3EB0B0343D09B1E012B40D91B1F3ED0CC
:205DFC0040F2FA3BB3EB0B036FD05B1E61D0D81E46D0001F44D06DE0B4F800C040F6010E4E
:205E1C00F4452CD15B1C022BC4DD3868404525D1A06C0168A06C026810790831032804BF35
:205E3C0094F86C00012811D1D1F80E0000281CBF088B00280AD091F8220010F0E00F05D164
:205E5C0001F11E0013F01EF9012870D0A6F800A0C7F80090A06C01680020087167E0A87B8E
:205E7C0001281CBF0428A6F800A0C7F80090087D0028CAD08868401C002288600A82C4E775
:205E9C00A87B012806BF41F20243ACF80230ACF802A03088904215D1CA68088A4D8A521CC8
:205EBC00CA60401C82B2AA4238BF2A464A82088208E000994A78D1064CBF816CC16E0868B2
:205EDC0000210171C7F800909FE7002010F0EAFE832003E0002010F0E5FE842013F0DEF92F
:205EFC00012038E0438E41F204455C1B1CD0A41F1AD03380408890420CD1CA68088A4C8A2C
:205F1C00521CCA60401C82B2A24238BF22464A82088206E0087D20B18868401C0022886012
:205F3C000A8241F20643C846C7F80080338001211348007809E012F040FD58B1C088114975
:205F5C000F4A308039600121107807F0AFFB01E0002001900198BDE8FE8F00BF9A0F002053
:205F7C00C80F0020480F0020D50F0020E4360020756B021085180000215A00006835002092
:205F9C00C70F0020D7110100F8B5144600254FF48067DFF89862C21B84B006F18C0334D044
:205FBC00921E39D0521E47D0521E52D0521E58D0521E5CD0521E00F08280921E00F08480B9
:205FDC00D21E00F0B480521E00F0BF80921E00F0C880521E00F08380521E00F0C980521E8E
:205FFC0000F0D780521E00F0DA80521E46D0521E5ED0521E53D0921E00F0E580921E00F028
:20601C00E980521E00F0F48003E1012915D12078022822DC707006E101290ED120780228E1
:20603C001BDA012804BFF178032900F0FB800028B070F0D17574E7E0012940F0E880207850
:20605C0005280ADA0328F0700AD10020B0707074DAE001296CD12078022880F2D8807073F9
:20607C00E1E0102964D110222146714814E001295ED12078022863DA3071D4E0012957D190
:20609C00207802285CDA00287071F6D00120B074602206F12C01184612F098F8C3E0012975
:2060BC00FCD12078022802DAB07112F0F1F9BAE001293DD12078022842DAF072B3E001297D
:2060DC0036D12078B073AEE0002931D113F0B2F810B9FBF754F81DE001207075A3E00729BF
:2060FC0026D10622611C02A811F04EFE00950023217801AA02A808F01DFBB0B9F07A10B99F
:20611C0013F098F810B1F07A012808D19DF80400FBF746F80546502011F05CFB1EE0716AEE
:20613C009DF80420012088547DE034257BE001296DD1317C2078022903D0C11F0A2902D3E9
:20615C0065E0102863D1F0736DE001295FD1317D20783075002908BF012864D1FAF79CFFA3
:20617C0061E0012953D12078032850DCF0745AE001294CD12078022849DC002847D03074D6
:20619C00022803BF1020F0730120002012F076FF49E001293BD1207811F048FC43E0707964
:2061BC00002834D1602908D1002C30D060222146184612F00BF8012003E0012927D134B3AF
:2061DC002078B0742FE0012921D104B320781949087028E0D9B913F02DF830B9FBF775F889
:2061FC000546502011F0F6FA1DE00120B0751AE001290CD12178022909DA012904BFB078D7
:20621C0000280FD07174084612F04AF90BE0182509E00F2806DA022904D121880FF090F88B
:20623C00054600E00225284605B0F0BD0420002034340020E73600202DE9F04FDFF84C920D
:20625C0004460D460020ADF1440D01461F460D9016460E9183460F91D9F808A0CDF840B09B
:20627C000AF06CFE262803D00AF068FE252825D1308843F6070181420ED040F60201814244
:20629C0006D0B0F5C15F19D1F07B022816DD43E0F07B022812DD3FE096F8240002280DDD49
:2062BC00307C0F2838D13169C1F31421B1F5803F04D00F2830D1B1F5A02F2DD1002D2BD047
:2062DC0056B328784FF0010808FA00F01AEA000F22D03046594612F07EFB65606C4DA660A6
:2062FC00A86980B110A800900DA90EAA0FAB304605F0D8FE0E980B214FF6FF72502310F094
:20631C00D3FDFF2808D012F02CFB82462878022804DB504612F066FF5C46B2E000286DD161
:20633C0003F040F95B495C4E086840F00200086009A8C9F8006012F0EBF8584E58497078D7
:20635C0009AA0B9005F1DC000DF0F6FE554905F58C7009AA0DF0F0FE09A812F031F81921C8
:20637C0009AB3078504A0A9005F15C000FF028FA4E4A05F178001A2109AB0FF021FA4C495A
:20639C005A4605F5AA7013460EF05AFF49495A4605F5CC7013460EF053FF47480068C0F3C2
:2063BC00814030B1454A05F1300004215B4610F0CBFDB078012802D10E2008F05FF905F144
:2063DC009C0011F08BFE05F1940011F087FE594685F82C1085F82010072085F84002A96275
:2063FC00A960374B197085F82D100526E960354A2E6104206A6210F03BFF287805EB8001F6
:20641C00401CC1F8B440C0B22870504612F0EAFE1FB901A811F0A8FE01AF38684FF4FA76A2
:20643C00E6602060B86941466062388A6175E082F869E062786800280CBF40F6C4105946F7
:20645C0020612148E06120622175A061F86800B1E061786900B12062B86800B1A061C822BA
:20647C0004F1300059460AF0E2FF04F14800594610F0ECFB15495A4604F1B00013460EF0A4
:20649C00DFFE204611B0BDE8F08FC046CC2108408815002000200940110000E008B20100AB
:2064BC00757D0100FDD50000713501000927010031770100B97A0100B44F00502548010085
:2064DC00EC36002085C600009B6E0100218901002DE9F84F0446002000900CB910F0E2FB65
:2064FC0004F1500569462E68204607F073FA08B9072015E1A04641F28839DFF828B2DFF8E7
:20651C0028A2002469684A7A1820604301233718A3401A420AD098F80E103AF811003880CC
:20653C0000211BF80420BA73F97302E040F6010038800021798007F118007860387B00F0D8
:20655C00EF00387340F08000387398F80E10012916D1397B002C0CBF0220052001F0F00197
:20657C000843387324B912F0B9FD00F57A6000E04846B860787B00F0F00040F0020017E023
:20659C00002C0CBF0221002100F0F0000843387324B912F0A3FD00F57A6000E00020B86068
:2065BC00022C797B0CBF0120022001F0F00108437873641C06F14800386106F16801032C90
:2065DC0079619FDB98F80E000024012808F1A80718D108F19C0070631822314611F0F6FDC2
:2065FC0006F118002865C5F85490397801F0F00141F005013970787800F0F00040F00200CD
:20661C00787000E07463B068C8F8100047480178397412F0EFFDB064454881690978CA0757
:20663C00826912784CBF1F210F2193078269127848BF41F0200153078269107848BF41F0E1
:20665C004001020706F14C0248BF41F08001117054706968887C00F0030008F13E015070D1
:20667C000B7863F3820050704978947061F3C3005070D47040F0100050703465746508F198
:20669C003800F06598F80E00012818BF042815D0A86830B1B0F803009070A968D1F8050027
:2066BC003065E86830B1B0F80300D070E968D1F8050070651F4801684868F06508F130001B
:2066DC00B065D07D00F0EF00D07540F08000D07500F0F00040F00600D0752869B0F803008C
:2066FC0000280EBF144849F64041484370661349087838B15078117840F0400001F0FE0196
:20671C00507011700E498B78507859064CBF40F0200000F0DF005070009806F07BF900208F
:20673C00BDE8F28F506E0210F46B0210DE36002088B301006C0F002000204E00880E0020A7
:20675C00C00C00202DE9F04F0746F88916468A46ADF1440DC01D80B205460BF0E5FC8F4CE2
:20677C00FF280BD1284604F02DFC854204DD641C207800B905200EE1012000E000206178E8
:20679C00D9B916B1022E18D1B8B1387AFE88BD888DF82C000023009309AAADF82A60E18ECD
:2067BC0094F83300ADF82850032305F07FFA9DF834003874BDF83060BE81BD8955B3FE897F
:2067DC0046B3AD1B4FF000091FFA85F84D463A7C761B202ED4BFB6B22026E06808EB050154
:2067FC0089B2334601EB423101AA12F023F80AEB050101A8324610F0CBFD58B9AD19FE8960
:20681C00ADB2AE42E3DCB9F1010F1CBF4846B88140F0BA8094F83310E58EE06801AA04232C
:20683C008846490312F006F8019800F0FF007E2806D140467C210FF079FF019800F0FF00FB
:20685C007C2840F0A580F88942F20102C11D8EB2A9198A4240F39A80F9883A7AC1F3012365
:20687C008DF83910B98843EA82038DF838308A1007468DF83A200423C0F3851201F0030122
:20689C0042EA81128DF83B2010FB03F1FA1D01F0FC017B1990B28DF83C101FFA83FB0D28C6
:2068BC002BDB50463946002211F0FCFE024605210EA811F0F7FE9DF83C103B4600F03F07D2
:2068DC00524641EAA011B8008DF83C1040F0020096278DF83D0029468DF83E7040460EF0C8
:2068FC0099F8074659460EAA0723404667700EF091F8384360704DD135E004F1240051460B
:20691C003A4609F089F80EA90A68381900F124094846097902607B1D0171002204F1240012
